:020000040800F2
:10000000008600209D01000867380008593000086C
:1000100065380008CF0800081D4E000800000000E9
:10002000000000000000000000000000EB45000898
:10003000C909000800000000AD3800086947000841
:10004000B7010008B7010008B7010008B7010008B0
:10005000B7010008B7010008B7010008B7010008A0
:10006000B7010008B7010008B7010008B701000890
:10007000B70100081D090008B7010008B701000812
:10008000B7010008B7010008B7010008B701000870
:10009000B7010008B7010008B7010008F709000818
:1000A000B7010008B7010008B7010008B701000850
:1000B000B7010008B7010008B7010008B701000840
:1000C000B7010008B7010008B7010008B701000830
:1000D000B7010008114E0008B7010008B701000879
:1000E000D9090008CD380008B7010008B701000899
:1000F000B7010008B7010008B70100082909000886
:10010000B70100084D3A0008B7010008B701000820
:10011000B7010008B7010008B7010008B7010008DF
:10012000B7010008B7010008B70100083509000849
:10013000B7010008B7010008B7010008B7010008BF
:10014000B7010008B7010008B7010008B7010008AF
:10015000B701000841090008B7010008B70100080D
:10016000B7010008B7010008B7010008B70100088F
:10017000B7010008B7010008B7010008000000003F
:10018000B7010008B7010008DFF80CD000F08CFAC6
:100190000048004779710008008600200648804723
:1001A00006480047FEE7FEE7FEE7FEE7FEE7FEE75C
:1001B000FEE7FEE7FEE7FEE72548000889010008A4
:1001C0002DE9F05F0546002092469B46884606468C
:1001D000814640241BE0284641464746224600F01F
:1001E0009BF853465A46C01A914110D311461846FF
:1001F000224600F082F82D1A67EB01084F4622468E
:100200000120002100F079F817EB00094E41201E73
:10021000A4F10104DFDC484631462A464346BDE8E6
:10022000F09F2DE9F0410024061B254671F10006E0
:1002300005DA01240027D0EB070067EB0101161E49
:1002400073F1000605DA0027D2EB0702012567EB00
:100250000303FFF7B5FF86460E4617469C46AC42A1
:1002600004D00025D0EB050E65EB010624B100207B
:10027000D2EB000760EB030C704631463A4663460A
:10028000BDE8F081D2B201E000F8012B491EFBD29B
:1002900070470022F6E710B513460A460446194691
:1002A000FFF7F0FF204610BD00F0004230F00040A4
:1002B0000AD0C10D01F56071C0F3160042EA015188
:1002C000C20840071143704700200146704730B50F
:1002D0000B46014600202022012409E021FA02F504
:1002E0009D4205D303FA02F5491B04FA02F528449E
:1002F000151EA2F10102F1DC30BD202A04DB203AF8
:1003000000FA02F1002070479140C2F1200320FA68
:1003100003F3194390407047202A04DB203A21FA66
:1003200002F00021704721FA02F3D040C2F120020E
:1003300091400843194670472DE9FE4F804681EAF7
:100340000300C00F0C46009021F0004123F000454F
:10035000B8EB0200A94105D24046214690461C4612
:100360000B46024623F00040104347D0270DC7F349
:100370000A00C3F30A510290401A019040286BDA38
:10038000C3F3130040F4801B0098924620B1002371
:10039000D2EB030A63EB0B0B01985946C0F1400204
:1003A0005046FFF7AAFF06460D4650465946019AA9
:1003B00000F08CF910EB08006141002487EA11522B
:1003C00084EAE7731A4340D0009A62B3019A012A83
:1003D0004FEA075215DC001B61EB02014FF00042AF
:1003E00002EA0752CDE90042001C41F58011324675
:1003F0002B4600F08CF903B0BDE8F08F4046214653
:10040000F9E7001B61EB0201001C41F580130018A5
:100410005B412018A2F5001747EB030140EAD570B5
:10042000B6196D4111E06D084FEA360645EAC07510
:100430004FEA0752001B61EB0201001C41F58011DD
:1004400049084FEA30000019514132462B4603B0AB
:10045000BDE8F04F00F04CB90098012240000023A5
:10046000D0EB020263EBE073009821464FEAE074A0
:10047000B8EB000061EB0401E9E783F000435BE7C0
:1004800081F0004158E72DE9FE4F81EA030404F0B2
:10049000004421F0004100944FF0000B23F0004392
:1004A00050EA01045ED052EA03045BD0C3F30A545D
:1004B000C1F30A552C44A4F2F3340194A0FB025476
:1004C000C1F3130141F48011C3F3130343F4801308
:1004D00001FB024400FB034E840A970A44EA81545C
:1004E00047EA8357A4FB076802958D0A05FB078539
:1004F0004FEA932C04FB0C542705029D4FEA065843
:1005000047EA1637B5EB08056EEB070C870E920E1F
:1005100047EA811742EA8312A7FB0201B6EB0B01FF
:1005200064EB00042B0D43EA0C335E1844EB1C50C3
:10053000DA465146E7FB0201C5F313044FEA0B33D9
:1005400043EA14534FEA0432019C43EA0603A4F140
:100550000C040294009CCDE900B400F0D8F803B07C
:10056000BDE8F08F00200146F9E72DE9F04D81EA62
:10057000030404F0004B21F0004514464FF0000A3C
:1005800023F0004150EA050220D054EA01021DD0B8
:10059000C5F30A570246C5F31303C1F31300C1F3B1
:1005A0000A5640F4801543F48013A7EB0608101B8D
:1005B000D64608F2FD3873EB050002D308F10108B6
:1005C00001E092185B41B8F1000F03DA0020014608
:1005D000BDE8F08D00204FF48011064684460EE001
:1005E000171B73EB050705D3121B63EB05030643CB
:1005F0004CEA010C49084FEA300092185B4150EA7E
:100600000107EDD152EA030012D082EA040083EA26
:100610000501084305D0101BAB4106D2012200237F
:1006200006E000224FF0004302E06FF00102531099
:100630001AEB06004CEB085110EB0A0041EB0B01E2
:10064000BDE8F04D00F054B8C1F30A52C1F31301F4
:1006500040F2FF3341F480119A4202DA0020014651
:10066000704740F233439A42A2F2334202DC5242D4
:10067000FFF752BEFFF741BE30B5041E71F1000412
:1006800004DB4FF00044404264EB0101141E73F19F
:10069000000405DB1C464FF00043524263EB0403A9
:1006A000994208BF904230BD064C074D06E0E06815
:1006B00040F0010394E8070098471034AC42F6D3A9
:1006C000FFF766FDC4780008E4780008202A06DBFE
:1006D000CB17203A41FA02F043EAE07306E041FA10
:1006E00002F3D040C2F120029140084319467047FE
:1006F00010B5141E73F1000408DA401C41F100012A
:1007000092185B411A4301D120F0010010BD2DE980
:10071000F04D92469B4611B1B1FA81F202E0B0FA77
:1007200080F220329046FFF7E8FD04460F4640EA8B
:100730000A0041EA0B0153465A46084313D01146BA
:1007400053EA010019D0C8F140025046FFF7E4FD1A
:1007500005460E46504659464246FFF7CEFD084331
:1007600005D0012004E020463946BDE8F08D002088
:10077000054346EAE0762C4337430A986305E40ACA
:10078000A0EB08000022FD0A44EA47540A3002D5D3
:1007900000200146E9E7010510196941DDE9084536
:1007A00000196941BDE8F04DA2E770B58C1810F84A
:1007B000015B15F0070301D110F8013B2A1106D1A6
:1007C00010F8012B03E010F8016B01F8016B5B1EC0
:1007D000F9D12B0705D40023521E0DD401F8013B9B
:1007E000FAE710F8013BCB1A921C03E013F8015B07
:1007F00001F8015B521EF9D5A142D8D3002070BD8B
:1008000010B54FF40071024800F026FC012010BD25
:1008100000100240704700000146014801F0FDBE93
:100820003043002010B5044801F009FF042801D02E
:10083000012010BD002010BD3043002010B500F095
:1008400015F8012801D0012010BD074801F0EEFF86
:10085000040006D14FF40061034801F0B4FD00B17B
:100860000124204610BD00003043002008B50120BF
:100870008DF80000FFF7C4FF10B900208DF80000CC
:100880009DF8000008BD000038B500240093134611
:100890000A460146034802F0A9F800B101242046A7
:1008A00038BD0000304300207047000038B50024F8
:1008B000009313460A460146034802F079F900B155
:1008C0000124204638BD0000304300207047FEE779
:1008D00010B500220C490D4805F006FD68B902224A
:1008E0000B490C4805F02CFD38B9094B02220C3B92
:1008F00009A1084805F034FF08B1012010BD0548E2
:1009000005F0C0FB002010BD16010020B80100203A
:10091000F80000201C22002030300000014800F0C8
:1009200025B9000030440020014800F01FB9000044
:1009300090440020014800F019B900001045002043
:10094000014800F013B90000704500200168182329
:10095000CAB2103AB2FBF3F2054B6FF30901032A56
:100960009B5CC36500D9091D81650846704700007E
:100970000878000810B5014600208B698A6A4FF09C
:10098000C07453B1B3F5005F15D072B1012A0CD019
:10099000022A0AD0032A09D104E01AB1012A06D09A
:1009A000022A03D1C96AC90100D5012010BDC96A54
:1009B000A142FAD010BD002AF7D0012AF2D0022AB3
:1009C000F3D0032AF3D010BD704702E030BF401EC1
:1009D00080B20028FAD0704710B54FF4006000F0E4
:1009E00057FA4FF4005000F053FABDE810404FF4AE
:1009F000004000F04DBA4FF4007000F049BA00001A
:100A0000054C4FF47A75C021204600F02AFB284699
:100A1000FFF7DBFFF7E7000000000240002200F0D4
:100A200001B8000030B50E4B054601205C7A002C61
:100A300014D1587A1C54587A03EB800045605D7AD3
:100A400003F108002A54587A421C5A723030087058
:100A50003A2048702F208870CC70002030BD0000F4
:100A6000F04500202DE9F0410C460A462DED028BA1
:100A70000746014682B0264B264804F047FF244D26
:100A8000283D28B924A105F1650004F0C9F9688161
:100A900094ED000AD5ED0D0AA846B4EE600AF1EE19
:100AA00010FA05D140F6B830FFF78FFF02F0ECFEE8
:100AB000DFED1D0A80EE208A84ED008A3868FFF79A
:100AC000F3FB05460E4618EE100AFFF7EDFB41EC6E
:100AD000100B0F48CDE9005653EC102B13A13D30FD
:100AE00004F09EF90A4B81B20022A8F80A103D33A7
:100AF000194401F8022C97ED000A88ED0C0A94EDD8
:100B0000000A88ED0D0A02B0BDEC028BBDE8F08151
:100B1000280000207001002072656164696E672002
:100B20006661696C000000000000C8425072657385
:100B3000733A252E32666850610A54656D703A2505
:100B40002E32662A4300000090F83510022903D0A7
:100B50008021416501207047052180F8351000682B
:100B6000016821F001010160002070472DE9F84380
:100B700004464FF00009CDF8009063484FF4165139
:100B8000A56D0068B0FBF1F72E6894F85C100820A2
:100B900000FA01F131420FD021680A6852070BD5E3
:100BA0000A6822F004020A6094F85C108840A86089
:100BB000606D40F00100606594F85C104FF0010832
:100BC00008FA01F0304208D021684969090604D5C5
:100BD000A860606D40F00200606594F85C1004202D
:100BE0008840304208D021680968890704D5A86088
:100BF000606D40F00400606594F85C10102088403F
:100C0000304218D021680968090714D5A860206807
:100C10000168490304D50068000308D5A16C07E00A
:100C20000168C90503D4016821F008010160216C45
:100C300009B12046884794F85C1020208840304253
:100C400031D021680968C9062DD5A86094F835000F
:100C500005282068016806D0490347D500680003CD
:100C60001DD4616C1CE021F016010160206841690F
:100C700021F080014161206C08B9A06C20B120688E
:100C8000016821F00801016094F85C103F20884061
:100C9000A86084F8349084F83580216D1FE0E16B02
:100CA00009B120468847606D00282BD0606DC007D1
:100CB00014D0052084F835002068016821F0010176
:100CC00001600098401C0090B84203D8206800687A
:100CD000C007F6D184F8349084F83580E16C00299F
:100CE00010D001B02046BDE8F04308470168C905AF
:100CF000D5D4016821F01001016084F8349084F8A3
:100D00003580CCE7BDE8F883280100202DE9F041CB
:100D1000044600F0AFF906465CB1002584F8345073
:100D2000022084F835002068016821F0010101608B
:100D30000DE00120BDE8F08100F09CF9801B052842
:100D400005D920206065032084F83500F2E720688B
:100D50000068C007F0D12268116820480140D4E93A
:100D600001031843D4E90336334318436369184336
:100D7000A3691843E3691843236A18430843616A67
:100D8000042903D1D4E90B131943084310602068E8
:100D90004069666A20F0070130460E4301270428A7
:100DA0000CD1A06A0643E06A40B12046FFF7E2FD9D
:100DB00020B14020606584F83570BAE7206846614C
:100DC0002046FFF7C3FD94F85C203F2191408160ED
:100DD000656584F835700020ACE700003F8010F0B6
:100DE00070B5044600F046F90546601C02D0044880
:100DF0000078044400F03EF9401BA042FAD370BDD5
:100E00001C01002070B5214C217900293AD1002520
:100E1000B0F5004F09D0B0F5005F0ED0B0F5006F0F
:100E200026D0B0F5007F2ED02AE06079401CC0B2F9
:100E30006071042824D9657122E0A07970B101287D
:100E400002D002280CD104E00021012005F0D2FFDD
:100E500006E00121084605F0CDFF082005F0B0FFAF
:100E6000A079401CC0B2A071022809D9A57107E081
:100E7000D4ED090A94ED080A02F080FC03F0B6FBF9
:100E80000120207170BD02F0FFFC00000000002076
:100E9000044910B50A68024202D00860FFF7B2FFA9
:100EA00010BD0000143C01402DE9F84FDFF87CB183
:100EB00000224FF001084FF0030A4FF00F090BF129
:100EC000040E00BF0B6808FA02F42340A3426ED15F
:100ED0004D68022D01D0122D0ED1D50800EB850CE6
:100EE000DCF820505607F70E09FA07F6B5430E69ED
:100EF000BE402E43CCF82060066855000F790AFAF0
:100F000005FC07F0030726EA0C06AF4037430760ED
:100F10004E68012E05D0022E03D0112E01D0122EC4
:100F20000ED18668CF6826EA0C06AF40374387604B
:100F30004668A6430C79C4F30014944034434460DB
:100F4000C6688C6826EA0C06AC403443C4604C6822
:100F5000E40065D5364C256845F480452560246855
:100F600022F0030504F480440094324C2E19D6F884
:100F7000084895072F0F09FA07F5AC432E4DA842F4
:100F800001D1002524E02D4DA84201D101251FE00B
:100F90002B4DA84201D102251AE02A4DA84201D1C9
:100FA000032515E0284DA84202D1042510E037E0C2
:100FB000264DA84201D105250AE0254DA84201D1C0
:100FC000062505E0234DA84201D1072500E00825AC
:100FD000BD402543C6F80858DBF800405D464E6822
:100FE0009C43F60300D51C432C60DEF80040754698
:100FF0004E689C43B60300D51C432C600B4D08354E
:101000002C684E689C43F60200D51C432C60074DAB
:101010000C352C684E689C43B60200D51C432C60EE
:10102000521C102AFFF44EAFBDE8F88F003C01407F
:1010300044380240003001400000024000040240F9
:1010400000080240000C0240001002400014024060
:1010500000180240001C02400069084000D0012036
:10106000704742694A40426170470AB181617047E6
:101070000904FBE701488068704700001C0100205C
:1010800090F83D007047000070B5040004D094F85B
:101090003D00002510B106E0012070BD84F83C50F1
:1010A000204600F0ADFA242084F83D002068016855
:1010B00021F00101016000F0FDFC33492268B0FB22
:1010C000F1F15160314A6368934206D94FF4967347
:1010D00059434FF47A73B1FBF3F12368491C196249
:1010E000616891420BD84900B0FBF1F2C2F30B02E8
:1010F000042A01D2042019E0B0FBF1F016E0A36845
:101100009BB301EBC10202EB0112B0FBF2F242F41D
:101110008042120530D04BB301EBC10202EB01114A
:10112000B0FBF1F040F4804040F400402168C86119
:10113000D4E90701084321680860D4E90310084393
:1011400021688860D4E9050108432168C8602068E7
:10115000016841F0010101602564202084F83D0010
:10116000256384F83E50002070BD00E006E001EBEE
:101170004102B0FBF2F2CCE70120D7E701EB4101DD
:10118000B0FBF1F0D0E7000040420F00A086010064
:101190002DE9F84F1F4690468A460446DDF8289010
:1011A000FFF768FF064694F83D0020287ED11923FA
:1011B000012243492046009602F09DF800287DD187
:1011C00094F83C00012879D0012084F83C00206884
:1011D0000168C90703D1016841F00101016020687D
:1011E000016821F400610160212084F83D00102095
:1011F00084F83E0000252564C4F8248067853148C2
:10120000E062608D208533464A465146204601F013
:1012100039FF28B1206C84F83C5004284CD00DE0F4
:10122000206841698069009030E032464946204696
:1012300002F007F928B1206C042838D00320BDE85B
:10124000F88F606A411C6162216800780861608DD6
:10125000401E6085208D401E80B2208521684A692D
:10126000D24352070BD450B1606A421C62620078CC
:101270000861608D401E6085208D401E20853246AD
:101280004946204602F010F80028D4D1208D0028CD
:10129000CBD154F83D0B016841F40071016020206E
:1012A00004F81E09E57765770020C8E706E02068A6
:1012B000016841F4007101600120C0E70220BEE72F
:1012C000020010000000FFFF2DE9FF4F83B09A4697
:1012D000DDE9118793460446DDF84090FFF7CAFE2A
:1012E000054694F83D00202874D119230122724943
:1012F0002046009501F0FFFF0028F5D194F83C004E
:10130000012867D0012084F83C0020680168C907E3
:1013100003D1016841F0010101602068016821F4F6
:1013200000610160222084F83D00402084F83E00E6
:1013300000262664C4F82490A4F82A805F48E0625E
:10134000608D2085CDE9007553465A4620460499A4
:1013500001F0E2FE28B1206C84F83C60042843D000
:1013600076E0208DC8B1012820D00228206823D043
:10137000416980690090208D03286BD801282AD00C
:101380004F4902283B464FF0000200955BD088464B
:10139000204601F0B0FFE8BB40E020684169816968
:1013A0000091016841F40071016076E020680168F5
:1013B00021F480610160F0E7016821F4806101603F
:1013C0002068016841F4006101602068416980691A
:1013D000009062E06EE02A463946204602F000F8AE
:1013E00030B1206C202833D0012007B0BDE8F08F49
:1013F000206847E02068016841F4007101602068BE
:101400000169606A421C62620170208D401E208565
:10141000608D00E01CE0401E6085E9E720680168FF
:1014200021F48061016020680169606A421C626287
:101430000170208D401E2085608D401E60853B46DA
:10144000002241460095204601F055FF0028D1D0EA
:101450000320CAE72A463946204601F0C1FF00288A
:10146000BFD120680169606A421C62620170208DF0
:10147000401E2085608D401E608520684169C943FB
:1014800049070AD40169606A421C62620170208DBA
:10149000401E2085608D401E6085208D00287FF4D1
:1014A0006AAF202084F83D0084F83E6084F83C60F8
:1014B00000209AE7022098E7020010000000FFFFDA
:1014C000040001002DE9FF4F83B09A46DDE9118742
:1014D00093460446DDF84090FFF7CCFD064694F8AD
:1014E0003D0020287DD11923012243492046009642
:1014F00001F001FF00287CD194F83C00012878D04D
:10150000012084F83C0020680168C90703D1016804
:1015100041F0010101602068016821F4006101606F
:10152000212084F83D00402084F83E0000252564F9
:10153000C4F82490A4F82A803048E062608D2085A9
:10154000CDE9007653465A462046049901F05CFEE8
:1015500080B3206C84F83C50042848D008E0324620
:101560003946204601F06DFF30B1206C042839D097
:10157000032007B0BDE8F08F606A411C61622168FA
:1015800000780861208D401E80B22085618D491E43
:10159000618521684A69D24352070BD468B1606AF9
:1015A000421C626200780861208D401E2085608D9B
:1015B000401E6085208D0028D1D132463946204614
:1015C00001F072FE0028D0D154F83D0B016841F4BF
:1015D00000710160202004F81E09E577657700207E
:1015E000C7E706E02068016841F40071016001204E
:1015F000BFE70220BDE70000020010000000FFFF6F
:101600002DE9F04387B0064614216846FEF741FEF7
:101610003B4DDFF8E8C0346839481221012203232A
:101620000427DFF8E08010354FF00009644519D138
:10163000046844F002040460006800F002000590B1
:1016400048018DE88F0069464046FFF72DFC286869
:1016500040F400102860286800F40010059007B0DE
:10166000BDE8F083DFF8A0C06445F8D1D0F800C031
:101670004C464CF0020CC0F800C0006800F00200BC
:1016800005904FF440608DE88F0069464046FFF7B3
:101690000BFC286840F48000286028681C4D00F48A
:1016A00080000590194828604FF06068C5E9018402
:1016B0000715C5E903476C61AC61EC612C622846F3
:1016C0006C62FFF723FB08B1FFF79AF9B563AE63CD
:1016D0000E48104D7830E5E80208402091C50D48CD
:1016E00045F81449AC61EC612C626C62FFF70EFBAB
:1016F00008B1FFF785F97563AE63B0E700540040A9
:10170000303802400004024000580040406002406F
:10171000304400209044002002488168027811443F
:10172000816070471C0100200B4810B5016841F42E
:1017300000710160016841F480610160016841F459
:1017400080710160032000F06DF8002000F006F8C1
:1017500000F024F8002010BD003C024070B50D4D93
:1017600004464FF47A712878B1FBF0F00A49096811
:10177000B1FBF0F001F0E9FA48B9102C07D20022D1
:101780002146501E00F02EF800206C6070BD012034
:1017900070BD00001C010020280100200A4808B587
:1017A000016841F480410160006800F480400090CD
:1017B0000548001F016841F080510160006800F099
:1017C0008050009008BD00004438024000F01F0225
:1017D000012191404009800000F1E020C0F8001193
:1017E00070470000F0B40E4B1B680C46C3F3022395
:1017F000C3F10705042D00D90425191D072901D2BD
:10180000002300E0DB1E012606FA05F1491E2140F7
:1018100099409E40761E16403143F0BC02F024B839
:101820000CED00E0064900F0070208684FF6FF03E0
:10183000184040EA0220034A104308607047000045
:101840000CED00E00000FA052DE9F84305460068BC
:101850004FF00109C1074FF0000601D1400727D51D
:10186000DFF80C81C8F86860FFF704FC0746414CBC
:1018700005E000BFFFF7FEFBC01B022857D8206819
:101880000001F7D468688101287A41EA007039497B
:1018900084310860C8F86890FFF7ECFB074604E065
:1018A000FFF7E8FBC01B022841D820680001F7D5EC
:1018B0002878800752D52F484030016841F0805188
:1018C000016000682C4C00F080500090206840F4CB
:1018D00080702060FFF7CEFB074604E0FFF7CAFBED
:1018E000C01B022823D82068C005F7D5214C7034CE
:1018F000206810F4407020D0A98901F44071814221
:101900001BD020681D4920F44070C1F800900E6083
:1019100020602068C00710D0FFF7ACFB064641F2FC
:10192000883707E0FFF7A6FB801BB84202D90320E7
:10193000BDE8F88320688007F4D5E9680D48C1F355
:1019400001220830032A0BD0016821F4F81101604C
:101950002068A989C1F30B01084320600020E7E754
:101960000268074B22F4F81219400A430260EFE7BD
:10197000000047420038024000700040400E4742DD
:10198000FFFCFF0F2DE9F0470E46050065D0DFF89C
:101990001481D8F80000F7B200F00F00B04207D26F
:1019A00088F80070D8F8000000F00F00B04254D161
:1019B00028683D4C810712D5400703D5206840F4C4
:1019C000E05020602878000703D5206840F460408C
:1019D00020602068A96820F0F00008432060287883
:1019E000C0072DD0304968680839012812D0022874
:1019F00013D0032811D00968890700292DDA21683E
:101A000021F0030101432160FFF734FB814641F2DD
:101A1000883A0EE009688903EFE709688901ECE775
:101A2000FFF728FBA0EB0901514502D90320BDE8CF
:101A3000F0872068696800F00C00B0EB810FEFD1EF
:101A4000D8F80010404601F00F01B14207D90770E5
:101A5000006800F00F00B04201D00120E7E72878CD
:101A6000400705D52068E96820F4E050084320606D
:101A70002878000706D52068296920F4604040EAEC
:101A8000C100206000F036F82168084AC1F3031154
:101A9000515CC840064908600020FFF75FFE002047
:101AA000C5E70000003C02400838024010780008FA
:101AB000280100200448054900680968044AC1F368
:101AC0008221515CC840704728010020083802403C
:101AD000207800080448054900680968044AC1F3F1
:101AE0004231515CC840704728010020083802404C
:101AF00020780008154810B5006810F00C02144852
:101B000013D04110042A0FD0082A0ED10F4C241FE5
:101B10002268236802F03F025B0207D52068C0F309
:101B20008810A0FB010106E0084610BD2168C1F342
:101B30008811A1FB00010023FEF742FB2168C1F3DD
:101B40000141491C4900B0FBF1F010BD08380240CA
:101B50000024F4002DE9F84F050076D02878DFF84E
:101B6000F8B2BE4CC00749D0DBF800105846C1F3AC
:101B70008101012908D00068C0F3810002280AD140
:101B8000201D0068400206D52068800336D56868AD
:101B90000028E2D032E06868B0F5803F10D0B0F5A0
:101BA000A02F206810D020F480302060206820F41E
:101BB000802020606868A0B1FFF75CFA06460CE060
:101BC000206840F48030F4E740F480202060F7E79C
:101BD000FFF750FA801B642873D820688003F7D57C
:101BE0000CE0FFF747FA064605E000BFFFF742FAB0
:101BF000801B6428F0D820688003F7D42878DFF8A9
:101C0000608280074FF000093ED5DBF8001058468F
:101C100011F00C0F09D00068C0F3810002280BD12D
:101C20008D48001F0068400206D42068800715D543
:101C3000E868012809D111E0E868B8B10120C8F8C6
:101C40000000FFF717FA064605E002E1FFF712FA77
:101C5000801B0228C0D820688007F7D52068296932
:101C600020F0F80040EAC10020600DE0C8F80090C4
:101C7000FFF700FA064604E0FFF7FCF9801B022894
:101C80001FD820688007F7D42878000722D5724E25
:101C9000744869696C3671B101210160FFF7EAF996
:101CA000074604E0FFF7E6F9C01B022809D83068B0
:101CB0008007F7D50EE0C0F80090FFF7DBF9074684
:101CC00005E083E0FFF7D6F9C01B02287ED8306814
:101CD0008007F7D42878400768D5DFF87CA1002773
:101CE0000AF1380ADAF80000C0000BD4DAF8001064
:101CF00041F08051CAF80010DAF80000012700F026
:101D000080500090584E3068C00510D4306840F4C0
:101D100080703060FFF7AEF9009005E0FFF7AAF998
:101D20000099401A022851D83068C005F6D54A4EAD
:101D3000A868683601280FD00528306810D020F038
:101D400001003060306820F004003060A868B8B14D
:101D5000FFF790F900900FE0306840F00100F4E7E1
:101D600040F004003060F7E7FFF784F90099411A6A
:101D700041F28830814264D830688007F4D50EE0A3
:101D8000FFF778F9009007E0FFF774F90099411A1E
:101D900041F28830814254D830688007F4D42FB1A2
:101DA000DAF8001021F08051CAF80010A869C0B319
:101DB000DBF80010C1F3810102294AD0022848460D
:101DC00007D0C8F86000FFF755F900E039E0054694
:101DD0003AE04746C8F86000FFF74CF9064604E0D1
:101DE000FFF748F9801B02282BD820688001F7D420
:101DF000D5E907010843A96A1C4A490802EB0141D9
:101E00006A6A41EA8211084395F82C1040EA0161A0
:101E10001148001F016001203866FFF72BF90546C5
:101E200005E014E0FFF726F9401B022809D82068D6
:101E30008001F7D50BE000BFFFF71CF9401B02281B
:101E400002D90320BDE8F88F20688001F4D4002077
:101E5000F8E70120F6E700000838024000380240A9
:101E600000004742800E4742007000400000FFFF24
:101E70007047704710B504460068C168C9050CD5A5
:101E80008068C00409D52046FFF7F3FF2068C168C9
:101E900001F0800161F4C071C1602068C1688905EA
:101EA0000CD58068800409D52046FFF7E1FF206843
:101EB000C16801F0800161F42071C16003494FF4F1
:101EC000003008600120607710BD0000143C014024
:101ED00010B500680B4641680D480140080CD870E9
:101EE000C1F304245C7001F03F049C70C1F34231E3
:101EF000197052B901F0F4FCD870587801F0F0FC78
:101F00005870987801F0ECFC9870002010BD00002B
:101F10003FFFFF0010B50B460168896A59600168F0
:101F20000969C1F30E019960006801680E4801401B
:101F3000C1F305401870C1F306245C7001F07F0402
:101F40009C70402404EA1141D97052B901F0C8FCD8
:101F50001870587801F0C4FC5870987801F0C0FCF3
:101F60009870002010BD00007F7F7F0070B50400D6
:101F700002D0607F10B106E0012070BD0020207704
:101F8000204600F049F8022060772168CA204862A4
:101F9000216853204862204601F0B6FCFF25042644
:101FA00018BB206881681B4A1140816021688868DD
:101FB00062681043D4E904231A43104388602168FF
:101FC000E068086120680169228941EA02410161F3
:101FD0002068C16821F08001C160206880688006A7
:101FE00007D4204600F0D0F918B120684562667722
:101FF000C2E72068016C21F4802101642068016C33
:10200000A2691143016420684562012060770020C5
:1020100070BD0000BFFF8FFF10B5006808498842FF
:102020000CD1084901200860002211462920FFF741
:10203000D9FBBDE810402920FFF7C8BB10BD000048
:10204000002800403C0E4742F8B503465E480C4667
:102050004FF4FA410068B0FBF1F049114843009099
:10206000187F012849D001261E770220587718686A
:10207000002580684FEA4060F2B3002859DA2078E2
:1020800001F02EFC94F8200001F02AFCA0782178C1
:10209000E27840EA01406178090241EA02410843DE
:1020A00094F8201040EA0160E169A269084361697F
:1020B0001F68084361681143CA227A621F6853226D
:1020C0007A62626AFF27B2F5807F1A684FF0030CCC
:1020D000946851D024F4007494601A68D46804F0B1
:1020E000800464F42074D4601A68009CB4F1010E7A
:1020F000CDF800E061D31EE001E00220F8BD002829
:1021000000DBE570207801F0F4FB0204607801F058
:10211000F0FB42EA0022A07801F0EBFB0243E078FA
:1021200042EA004294F8200001F0E3FB42EA00603A
:10213000BAE7E570A6E7D468A407D6D51062186898
:1021400081641868816841F4007181601868816851
:1021500041F4005181601D48016841F40031016083
:102160001A480830016841F400310160186847627C
:102170005E771D770020F8BD24F4807494601A689F
:10218000D46804F0800464F4C074D4601A68009CBD
:10219000B4F1010ECDF800E00FD3D468E407F6D017
:1021A000D061186841641868816841F48071816069
:1021B0001868816841F48051CCE7576283F81DC0EC
:1021C0001D770320F8BD000028010020003C0140DD
:1021D0002DE9F0470446007F0B4601281FD04FF041
:1021E000010984F81C9002206077DAB19878D978D8
:1021F00040EA014558781978000240EA4130054329
:102200002168CA204862216853204862204601F0B4
:102210007BFB0026FF274FF0040860BB1AE002207A
:10222000BDE8F0875878C10603D500F0EF000A300A
:102230005870D87801F05DFB0204587801F059FB22
:1022400042EA0022987801F054FB0243187842EAEF
:102250004035D5E70F480540206845602068C168D3
:1022600021F08001C1602068806880060AD4204681
:1022700000F08AF830B12068476284F81D80267724
:102280000120CDE72068476284F81D902677002062
:10229000C6E700003FFFFF002DE9F0470446007F3E
:1022A0000D46012811D04FF0010A84F81CA002202D
:1022B00060772068002680684FEA406042B10028BD
:1022C0001ADA287801F00CFB17E00220BDE8F0874D
:1022D000002800DBEE70287801F00BFB0204687820
:1022E00001F007FB42EA0022A87801F002FB02435A
:1022F000E87842EA00470AE0EE70A878297840EAD8
:1023000001476878E978000240EA01400743216804
:10231000CA204862216853204862204601F0F4FA3E
:102320004FF0FF084FF00409E0B916480740206855
:1023300007602068816821F480218160D5E903016C
:10234000084321688A68104388602068C16821F0CA
:102350008001C1602068806880060BD4204600F0B0
:1023600013F838B12168C1F8248084F81D902677CD
:102370000120ABE72168C1F8248084F81DA02677EE
:102380000020A3E77F7F7F0070B504460068C16826
:1023900021F0A001C160FEF76DFE05464FF47A768C
:1023A00007E000BFFEF766FE401BB04201D90320E4
:1023B00070BD2068C0688006F4D5002070BD10B5DF
:1023C000FEF728FA10BDFEB5044603200D4684F83A
:1023D0003400606C032820D0B5F5805F1DD0B5F5C2
:1023E000006F05D045B1A06B40F00060A06309E02C
:1023F000204601F0F2FF02E0204601F0C7FFA16B8A
:102400000143A163A06B012658B1216840F2FF503F
:10241000886384F834600120FEBDA06B40F08050DA
:10242000E4E7211DD4E905700EC90095CDE90170DE
:10243000206801F011FB84F834600020FEBD704775
:10244000F0B5426E120E93090B70C2F383034B700A
:1024500002F003028A70426E120CCA70B0F8642057
:10246000120A0A7190F864204A71826E4FF6FF7367
:10247000120E03EA0212CA80826ECB88C2F30742B0
:1024800043EA1213CB8002F00F020A72B0F8682000
:10249000C2F30722D3094B72C2F380138B72C2F3CB
:1024A0004013CB72C2F300130B7300264E73446CBF
:1024B0004FF4007701236CB1012C43D0026840F245
:1024C000FF519163816B41F08051816380F834301A
:1024D0000120F0BD9207120D0A6190F868200C6986
:1024E00044EA82020A61C26E0C69120E44EA921436
:1024F0000C61C2F3C2040C7502F007024A75C26E89
:10250000C2F3074254098C75C2F38204CC7592075A
:10251000520F0A76B0F86C20C2F307240A7E42EA12
:10252000D4120A760A69521C42650D7EAD1CAA407F
:1025300042650D7A03FA05F585656D0A6A43C0E9BF
:1025400017271CE090F868209206920A0A61C26E72
:102550000C69120E44EA02220A61C26E0C69C2F3CF
:10256000074214430C61B0F86C20C2F307240A69D7
:10257000521C4FEA82224265C0E916720766C4F314
:10258000801201F8192F4FEA84624FEA52624A70B2
:1025900010F86C2F4C7844EAD2144C7002F07F0291
:1025A0008A7042684FEA12624FEAD214CC70C2F3CA
:1025B00041140C71C2F382044C714FEA82724FEAEB
:1025C00012728A7142688C79C2F3074244EA92140B
:1025D0008C71C2F34014CC710E7202F001024A7287
:1025E0008288C2F307224FEAD2148C72C2F380149D
:1025F000CC72C2F340140C73C2F300144C73C2F3D8
:1026000081048C7302F00302CA7300794FEA500010
:1026100008744B744FF00000F0BD426C0A60826C8D
:102620004A60C26C8A60026DCA60426D0A61826D46
:102630004A61C26D8A61006EC8610020704770B542
:102640000446B0F8500000250104206801F083FB27
:1026500018B1A16B0143A16304E00021206801F0DF
:10266000EFF90546C5F3432070BD000070B5044680
:102670000068416B4FF00105CA0540F23A3149D577
:102680002A0282632068C26B8A43C263206B000700
:10269000206B22D5800702D4206B800609D52068E4
:1026A00001F08AFB28B1A16B0143A1632046FFF72B
:1026B000C6FE216840F2FF50886384F83450206BD6
:1026C000C00702D1206B800703D5204600F067FACF
:1026D00070BD204600F067FA70BD0006FCD5206B87
:1026E000800609D5206801F067FB28B1A16B014382
:1026F000A1632046FFF7A3FE206BC007ECD1206B3F
:102700008007E9D42068C16A21F00801C16284F819
:102710003450DEE7426B520410D54FF480418163A0
:10272000266A002506EB8501206801F0BEF96D1CC4
:10273000082DF7D3206A2030206270BD426B12044E
:1027400010D54FF400418163A66A0025206801F08E
:1027500099F946F825006D1C082DF7D3A06A2030A2
:10276000A06270BD426B40F23A231A42F9D0426B2C
:10277000920703D5A26B42F00202A263426B1207DA
:1027800003D5A26B42F00802A263426B920603D506
:10279000A26B42F02002A263426BD20603D5A26B69
:1027A00042F01002A263426B920503D5A26B42F085
:1027B0000802A26340F2FF7282632068C26B8A4300
:1027C000C263206B000623D5206C58B11549016502
:1027D000206CFEF7B9F90028C3D0206CBDE870402A
:1027E00001F082BCE06B58B10F490165E06BFEF768
:1027F000ABF90028B5D0E06BBDE8704001F050BCEB
:102800000020A06384F834502046FFF7D8FD70BD47
:10281000206B0007FBD584F834502046FFF70FFEED
:1028200070BD0000E9400008A140000870B5040038
:1028300004D094F83400002510B105E0012070BDEB
:102840002577204600F038F8032084F8340020462D
:1028500000F008F8A5632563012084F83400002007
:1028600070BD0000FEB50025044676200095CDE938
:1028700001502B462A462946206801F0EDF80D4EFE
:1028800046F8A05F206801F0F9F8012535600220C4
:10289000FEF7A6FA204601F028FD20B9204601F0F7
:1028A000B1FC002805D084F83450A16B0143A1632A
:1028B0000120FEBD008025422DE9F04F87B005467E
:1028C00014216846FDF7E5FC4149286888427BD120
:1028D000404800683F4940F400600860086800F420
:1028E000006005903B48143800683A4940F0040005
:1028F00014390860086800F004000590086840F08A
:10290000080008600868022400F0080005904FF4F1
:10291000F850CDE9000402AA002003264FF00C086D
:1029200082E8410169462C48FEF7BEFA02AA00205F
:1029300082E841010427CDE9007469462748FEF783
:10294000B3FA284C26484FF00068C4E9000800207C
:102950004FF48069A060C4E90309B8024FF4804BCA
:10296000C4E9050BC4E909764FF0200A0020C4E948
:1029700007A07E05B7102046C4E90B67FEF7C6F92D
:1029800008B1FEF73DF8EC63A563174C144804F159
:1029900028024830C4E900084020A0600020C4E9B3
:1029A0000309C4E907A004206062032082E8C10093
:1029B0004FF48051C4E9051B2046FEF7A7F908B182
:1029C000FEF71EF82C64A56307B0BDE8F08F000089
:1029D000002C01404438024000080240000C024034
:1029E0005864024010450020704500202DE9F04F4A
:1029F00087B09A4617460E460446DDF840B0FEF70B
:102A000039FB00903EB194F83400012807D0A06B48
:102A100040F000500FE0A06B40F000600BE04FF082
:102A20000008C4F83880E06D07EB0A01814204D940
:102A3000A06B40F00070A0637DE0032084F83400B8
:102A40002068C0F82C80606C012800D07F024FF411
:102A50000071206801F062F840F2FF59012530B1A1
:102A60002268C2F83890A16B0143A16361E04FF086
:102A7000FF3001904FEA4A200290902003900220FC
:102A8000CDE90408069501A9206800F0C3FFBAF15A
:102A9000010F06D9022020633946206801F0CCF8E6
:102AA00004E025633946206801F0DFF80028D7D11B
:102AB00040F22A382068416B11EA080F22D1406B9E
:102AC000000409D50027206800F0DCFF46F8270045
:102AD0007F1C082FF7D32036BBF1000F05D0FEF77F
:102AE000C9FA0099411A5945E4D32168C1F83890D0
:102AF000A06B40F00040A06384F83450032007B07E
:102B0000BDE8F08F416BC90509D5BAF1010F06D9AF
:102B1000616C032903D001F04FF90028A0D120688F
:102B2000416B090709D5C0F83890A06B40F0080048
:102B300028E084F834500120E1E7416B890705D58E
:102B4000C0F83890A06B40F002001BE0416B890692
:102B50001AD5C0F83890A06B40F0200012E000BFFA
:102B600000F090FF01C6BBF1000F05D0FEF782FA1E
:102B70000099411A594507D32168C1F83890A06BD4
:102B800040F00040A063D4E72068416B8902E7D49D
:102B90002168C1F8389084F834500020AFE710B5B0
:102BA000FDF782FE10BD10B5FDF790FE10BD0000D0
:102BB0002DE9F04F87B09A4616460D460446FEF7BB
:102BC00059FA06903DB194F83400012807D0A06B63
:102BD00040F000500DE0A06B40F0006009E00020E4
:102BE000A063E26D06EB0A01914204D9A06B40F0AC
:102BF0000070A06390E0032184F8341021688146BE
:102C0000C862606C012800D076024FF40071206821
:102C100000F084FF40F2FF58012730B12268C2F86B
:102C20003880A16B0143A16317E0BAF1010F06D907
:102C3000202020633146206801F0D8F805E01020FC
:102C400020633146206801F0EAF8060008D02168C8
:102C5000C1F83880A06B3043A06384F834705BE027
:102C60004FF0FF3000904FEA4A20019090200290F0
:102C70004846CDE90407CDF80C90B946694620686E
:102C800000F0C8FE40F21A3B22E0406B40040AD537
:102C90005FF0000705EB8701206800F006FF7F1C4E
:102CA000082FF7D32035109830B1FEF7E3F90699D5
:102CB000411A109881420BD32168C1F83880A06B6B
:102CC0003043A06384F83490032007B0BDE8F08F50
:102CD0002068416B11EA0B0FD7D0416BC9050FD5A6
:102CE000BAF1010F0CD9616C032909D001F064F825
:102CF00030B12268C2F83880A16B0143A16309E0BA
:102D00002068416B090709D5C0F83880A06B40F0F6
:102D1000080014E084F834900120D6E7416B89075D
:102D200005D5C0F83880A06B40F0020007E0416B89
:102D3000C0F83880C90604D5A06B40F01000A0632D
:102D4000E8E784F834900020BFE710B5401EB0F1EA
:102D5000807F01D3012010BD4FF0E02460610F217E
:102D6000601700F081FD0020A06107202061002095
:102D700010BD30B590F83820012A20D0012280F80B
:102D80003820022380F8393003685C6824F070042E
:102D90005C6003685C680D682C435C6003689C6839
:102DA00024F080049C6003689C6849680C439C6024
:102DB00080F83920002180F83810084630BD022004
:102DC00030BD10B5040003D094F8390010B107E00D
:102DD000012010BD002084F83800204600F00CF8D7
:102DE000022084F83900211D206801F045FD0120F2
:102DF00084F83900002010BD08B5006806498842F3
:102E000008D10648016841F001010160006800F046
:102E10000100009008BD000000000140443802405D
:102E200070B5044690F83800012818D0012584F8C0
:102E30003850022084F83900204601F087FD2068D0
:102E4000C16821F04001C1602068C16821F480415F
:102E5000C16084F83950002084F8380070BD022029
:102E600070BD704770B5026804461068D168536938
:102E700010F00F0F50D003F0010501F490763543A8
:102E80005DD0C20705D0CA0503D5E26B42F001024E
:102E9000E263420705D5DA0703D0E26B42F0020293
:102EA000E263820705D5DA0703D0E26B42F0040241
:102EB000E263020705D5DA0703D0E26B42F00802AD
:102EC000E263E26B002A33D0800604D5880602D57F
:102ED000204601F0CEFD20684069E16BC0F3801010
:102EE000090700D428B3204601F0B5FD20684169E8
:102EF00049061AD5416921F040014161606BA0B1DA
:102F00001B490165606BFDF71FFE002810D0606B48
:102F1000016DBDE870400847830610D58B060ED5BD
:102F20002046BDE8704001F0A4BD2046FFF799FFA0
:102F300070BD2046FFF795FF0020E06370BD0306DB
:102F400006D50B0604D52046BDE8704001F02EBF23
:102F50004006F3D54806F1D5D168204621F040015E
:102F6000D160202184F8391000F075F870BD0000A0
:102F7000474A000870B5040004D094F839000025D1
:102F800010B106E0012070BD84F83850204600F0F2
:102F900023F8242084F839002068C16821F4005106
:102FA000C160204601F0ACFD2068016921F4904128
:102FB00001612068416921F02A0141612068C168EE
:102FC00041F40051C160E563202084F8390084F8A1
:102FD0003A00002070BD000010B586B004461421F0
:102FE0006846FDF756F918492068884229D11748E4
:102FF000016841F010010160006800F010000590C8
:1030000012481438016841F0010101600068694606
:1030100000F0010005904FF4C06000900220019084
:103020000120029003200390072004900848FDF738
:103030003BFF002211462520FEF7D4FB2520FEF79A
:10304000C5FB06B010BD000000100140443802402E
:103050000000024070477047FEE701684A69D243AA
:1030600052050CD46FF480624A610421016400218E
:1030700040F8301F20224273017301207047002066
:1030800070470000F8B50446C06A1E460D46174654
:10309000042807D0012805D010F5803F02D0206B0E
:1030A000122804D12068016841F480710160134640
:1030B00000224FF001112046009600F01CF9A0B943
:1030C0002069B0F5804F12D00620216800EAD510A3
:1030D00040F0F000086133463A460E49204600F0C1
:1030E0003BF938B1206C042811D00320F8BD05F05D
:1030F000FE0000E0E8B221680861064933463A461E
:10310000891F204600F028F90028EBD1F8BD0120E6
:10311000F8BD0000080001002DE9F84F04460068E2
:1031200089460B9D01689846174641F4806101600D
:103130002068016841F48071016000954FF0011A28
:103140000022514620460A9B00F0D5F8F0BB2168CA
:1031500009F0FE0008610AF1010B2B465946204692
:103160000A9A00F0F9F818B1206C042812D03AE05D
:1031700020684169806900902A4620460A9900F03B
:1031800060F950B1206C04282DD12068016841F409
:10319000007101600120BDE8F88FFEB2B8F1010FA7
:1031A00009D02168380A08612A4620460A9900F0A9
:1031B00048F90028E6D1206806612A4620460A9987
:1031C00000F03FF90028DDD1206800E00BE0016845
:1031D00041F48071016000950022514620460A9B0F
:1031E00000F089F808B10320D5E7216809F0FF0055
:1031F00040F0010008612B46594620460A9A00F02B
:10320000ABF80028B0D1C6E72DE9F84304460068C2
:103210000D46DDE9089701689846164641F480712D
:1032200001604B4600224FF001112046009700F04C
:1032300062F8E8B9216805F0FE0008613B464A469D
:103240001849204600F088F828B1206C04280FD1D6
:103250000120BDE8F88320684169806900903A4602
:103260004946204600F0EDF820B1206C042813D028
:103270000320EEE7F5B2B8F1010F09D02168300A5A
:1032800008613A464946204600F0DBF80028ECD1B8
:10329000206805610020DCE72068016841F40071C6
:1032A0000160D5E70200010070B516460D460446E0
:1032B0001AE02046FFF7D1FE08B1012070BD681C5E
:1032C00012D025B1FDF7D6FE801BA8420CD954F8C8
:1032D000400F40F0200044F8100900202060202119
:1032E00061732073032070BD20684069C0434007AC
:1032F000DFD4002070BD2DE9F0471E4690460D46F4
:103300000446C1F30747DDF8209012E0701C10D08E
:103310002EB1FDF7AFFEA0EB0900B04209D90020A5
:1033200044F8300F20216173A07320730320BDE89F
:10333000F0872068012F0AD0806925EA0000000488
:10334000000C06D000214145E0D00020EFE74069A5
:10335000F3E70121F7E700002DE9F0479A4691468F
:103360000D46044600264FF02008C1F307472AE027
:1033700020684069C043400512D42068016841F4C8
:103380000071016021686FF480604861042020644E
:10339000266384F83D8084F83C600120BDE8F08716
:1033A000B9F1FF3F0FD0B9F1000F05D0FDF762FE74
:1033B000A0EB0A01494506D944F8306F84F80D8026
:1033C00026730320EAE72068012F07D0D0F8180001
:1033D00025EA00000004000CE0D0C9E74069F7E7E7
:1033E0002DE9F041002590460E460446202721E0B5
:1033F0004069C043C0060CD421686FF010004861DA
:103400002564256384F83D7084F83C500120BDE8B4
:10341000F0812EB1FDF72EFEA0EB0800B04209D9D5
:1034200054F8400F40F0200044F8040967702570FC
:103430000320ECE720684169C9434906D8D400203D
:10344000E5E770B516460D4604461AE02046FFF73C
:1034500004FE08B1012070BD681C12D025B1FDF733
:1034600009FE801BA8420CD954F8400F40F0200000
:1034700044F810090020206020216173207303208C
:1034800070BD20684069C0430006DFD4002070BDD5
:1034900030B5174C174D85B0B4F914003B280CDD3E
:1034A000012229461448FEF735FD012204F13801B6
:1034B0001148FEF70DFDA878A0820D480DF1040C0F
:1034C00038300378C278417880788CE80F00B4F9FE
:1034D0001400009006486B782A7808A1443001F067
:1034E0009FFC2081A08A401CA08205B030BD000056
:1034F00000000020A4010020F044002054696D6504
:103500003A25783A25783A25690A446174653A255E
:10351000782E25782E25782025780000194808B5C2
:10352000016841F400110160016801F4001100918B
:10353000016841F4800101600068002200F480000D
:10354000009011460D20FEF74DF90D20FEF73EF9D3
:10355000002211462F20FEF745F92F20FEF736F9FD
:10356000002211463B20FEF73DF93B20FEF72EF9E5
:10357000002211464520FEF735F9BDE808404520F8
:10358000FEF724B93038024010B504490448FDF76D
:1035900045FA0249491E087010BD000016010020BE
:1035A000F47700082DE9F04186B014216846FCF755
:1035B00070FE37480024016841F010010160016885
:1035C00001F010010591016841F0040101600168FA
:1035D00001F004010591016841F08001016001687A
:1035E00001F080010591016841F00101016001686D
:1035F00001F001010591016841F0020101600168DB
:1036000001F002010591016841F0080101600068C4
:10361000204E00F0080005900022C0213046FDF742
:1036200024FDDFF87480002280214046FDF71DFD57
:10363000182001258DE83100184F69463846FDF7FE
:1036400033FCC0200090CDE9015469463046039414
:10365000FDF72AFC6802CDE9000469463846029469
:10366000FDF722FC4FF42A4000900D48CDE90104FB
:1036700069460C48FDF718FC80200090CDE9015404
:10368000694640460394FDF70FFC06B0BDE8F081A3
:1036900030380240000002400008024000100240A2
:1036A00000002110000C02400C4810B50A490160CE
:1036B0000B49416000214FF480428160C0E9031250
:1036C00041618161C1610162FDF7DEFC002801D02A
:1036D000FDF796F910BD000000540040884200201C
:1036E000A08601000C4810B50A4901600B494160F1
:1036F00000214FF480428160C0E903124161816181
:10370000C1610162FDF7C0FC002801D0FDF778F926
:1037100010BD000000580040DC420020A0860100DF
:1037200010B588B014216846FCF7B3FD0024124898
:10373000059410490694C0E900148460C4600461D3
:103740004461FFF73EFB80B90720009020200190E4
:1037500069460948FFF764FB38B9059405A906488E
:103760000694FFF706FB002801D0FDF749F908B0E1
:1037700010BD000000000140B443002030B52DED25
:10378000028B89B0B0EE608AF0EE408A01222249B5
:103790002248FEF7BFFB012221492048FEF798FB93
:1037A00018EE100AFCF780FD04460D4618EE900A4C
:1037B000FCF77AFD04AA82E83300174C18486378B6
:1037C000C17822788DE80E004378827815A1A4F1A3
:1037D000280001F025FB81B2A4F1280000F024FEAE
:1037E0000F4D2C3D28B1002240211548FDF73DFC2E
:1037F00002E0688A401C6882B5F91200009008480F
:10380000637822780FA15A3001F00AFBA88109B031
:10381000BDEC028B30BD00005C010020F0440020B4
:103820002C00002025782025782025782025782058
:1038300025782020252E326620252E32660D0A009E
:10384000000002404C617374207265673A2025784D
:103850003A25780A4D6561732073617665643A2074
:1038600025690000FEE770470907090E002806DAFF
:1038700000F00F0000F1E02080F8141D704700F107
:10388000E02080F800147047BFF34F8F05480168AF
:10389000054A01F4E06111430160BFF34F8F00BF9F
:1038A000FDE700000CED00E00400FA0570470000A1
:1038B000054810B5D0ED090A90ED080AFFF75EFF44
:1038C000BDE8104000F092BE0000002010B5034893
:1038D000FEF7D0FABDE81040FFF7EABFF044002041
:1038E000010901EB810100F00F0000EB4100C0B2C3
:1038F0007047002102E00A38C0B2491C0A28FAD2F7
:10390000090740EA1160704770B504460068C16855
:10391000490614D44FF0FF31C160FDF7ABFB0546FB
:103920004FF47A7607E000BFFDF7A4FB401BB042DE
:1039300001D9032070BD2068C0684006F4D500207E
:1039400070BD000030B531489BB02F490024C0E95C
:1039500000147F218160FF21C0E903144461846168
:10396000FEF704FB08B1FDF74BF88DF8004009A8FD
:1039700000F000FE264D012804D1002280212846B7
:10398000FDF773FB462209A9684601F040F89DF84F
:103990000000012836D19DF801008DF80C009DF83B
:1039A00002008DF80D009DF803008DF80E000694BE
:1039B000012203A915480794FEF76EFC08B1FDF734
:1039C0001FF89DF804008DF822009DF805008DF881
:1039D00021009DF806008DF823009DF807008DF862
:1039E0002000012208A90948FEF7F2FB08B1FDF703
:1039F00007F8FCF76DFF002804D00022402128467C
:103A0000FDF733FB1BB030BD00280040F044002020
:103A1000000002400A6842624A688262D1E90223D9
:103A20001A43D1E904310B43C16A1A4321F0F7016B
:103A30001143C16200207047006800F00300704726
:103A400008B5084414300090006808BD0148FEF72E
:103A50000DBE00003043002070B50DF1100C114375
:103A60009CE870002343194329434268314347F6D9
:103A7000FF639A430A434260002070BD0321016046
:103A800000207047D0F8800070470A688260D1E952
:103A900001231A43D1E903310B43C1681A436FF381
:103AA0000B011143C160002070470968C0F8801005
:103AB0000020704710B586B004463720CDE90010CD
:103AC00040200290002003904FF4806004906946EB
:103AD0002046FFF7DAFF41F288323721204600F016
:103AE000B7F906B010BD000010B504460A4886B00C
:103AF00001432920CDE900104020029000200390CE
:103B00004FF48060049069462046FFF7BEFF2046D0
:103B100000F054FA06B010BD0000108010B586B059
:103B200004461020CDE900104020029000200390B0
:103B30004FF48060049069462046FFF7A6FF41F2EB
:103B400088321021204600F083F906B010BD10B570
:103B500086B004460620CDE90010402002900020E7
:103B600003904FF48060049069462046FFF78DFF74
:103B700041F288320621204600F06AF906B010BDF5
:103B800030B585B000240546009401944FF4806060
:103B90000294CDE9034069462846FFF776FF0B48BB
:103BA0004FF4FA510068B0FBF1F041F2883148431C
:103BB000401E03D24FF0004005B030BD696B0906CE
:103BC000F6D540F2FF50A8632046F5E72801002013
:103BD00070B585B004464FF4D5700090082040269B
:103BE000CDE901060025C001CDE903506946204614
:103BF000FFF74BFF0F484FF4FA510068B0FBF1F0AC
:103C000041F288314843401E02D24FF000450DE09A
:103C1000616B11F0450FF6D0606B400702D5A663CB
:103C2000042503E0606B400600D5A66305B0284676
:103C300070BD00002801002010B586B00446122097
:103C4000CDE9001040200290002003904FF48060E6
:103C5000049069462046FFF718FF41F2883212218E
:103C6000204600F0F5F806B010BD10B586B0044649
:103C70001120CDE9001040200290002003904FF465
:103C80008060049069462046FFF7FFFE41F28832CB
:103C90001121204600F0DCF806B010BD10B586B04A
:103CA00004460720CDE90020402002900020039028
:103CB0004FF48060049069462046FFF7E6FE41F22B
:103CC00088320721204600F0C3F806B010BD10B5B9
:103CD00086B0044600210220CDE90010C020CDE9C5
:103CE00002014FF48060049069462046FFF7CDFE44
:103CF000204600F03BF906B010BD10B586B0044672
:103D00000920CDE90010C0200290002003904FF45C
:103D10008060049069462046FFF7B7FE204600F019
:103D200025F906B010BD10B586B004460021332039
:103D3000CDE900104020CDE9020100010490694660
:103D40002046FFF7A2FE41F288323321204600F0E0
:103D50007FF806B010BD10B586B004460D20CDE941
:103D6000001040200290002003904FF480600490E7
:103D700069462046FFF789FE41F288320D21204630
:103D800000F066F806B010BD30B585B00C460546AB
:103D900000210320CDE900104020CDE902010001FF
:103DA000049069462846FFF770FE22460321284604
:103DB00000F024F905B030BD10B586B004460021EE
:103DC0000C20CDE900104020CDE902010001049053
:103DD00069462046FFF759FE034A0C21204600F0B1
:103DE00037F806B010BD000000E1F50510B586B04B
:103DF00004461920CDE900104020029000200390D5
:103E00004FF48060049069462046FFF73EFE41F281
:103E100088321921204600F01BF806B010BD10B5FD
:103E200086B004461820CDE9001040200290002002
:103E300003904FF48060049069462046FFF725FE0A
:103E400041F288321821204600F002F806B010BD79
:103E5000444B10B51B684FF4FA54B3FBF4F35343CF
:103E60005B1E02D24FF0004010BD426B12F0450FB6
:103E7000F6D0426B520703D504218163084610BD7A
:103E8000426BD20702D00121816303E00269D2B202
:103E90008A4201D0012010BD40F2FF518163002110
:103EA000FFF7CEFD3049084201D1002010BD0028A7
:103EB00002DA4FF0007010BD410001D5402010BD66
:103EC000810001D5802010BDC10002D54FF4807063
:103ED00010BD010102D54FF4007010BD410102D5A3
:103EE0004FF4806010BDC10102D54FF4006010BDD9
:103EF000010202D54FF4805010BD410202D54FF4AB
:103F0000005010BD810202D54FF4804010BDC102A7
:103F100002D54FF4004010BD410302D54FF40030EC
:103F200010BD810302D54FF4802010BDC10302D51E
:103F30004FF4002010BD010402D54FF4801010BDD5
:103F4000410402D54FF4001010BD810402D54FF496
:103F5000800010BD000702D54FF4000010BD4FF4E3
:103F6000803010BD2801002008E0FFFD12494FF409
:103F7000FA520968B1FBF2F141F288325143491E0D
:103F800002D24FF000407047426B12F0450FF6D05E
:103F9000416B490703D50421816308467047416B93
:103FA000C90703D0012181630846704740F2FF51E1
:103FB0008163002070470000280100200E494FF463
:103FC000FA520968B1FBF2F141F288325143491EBD
:103FD00002D24FF000407047426B12F0450FF6D00E
:103FE000416B490703D5042181630846704740F2BD
:103FF000FF51816300207047280100201F4B10B53E
:104000001B684FF4FA54B3FBF4F341F28834634372
:104010005B1E02D24FF0004010BD446B14F0450F00
:10402000F6D0436B5B0703D504218163084610BDBE
:10403000436BDB0702D00121816303E00369DBB23C
:104040008B4201D0012010BD40F2FF51816300215D
:10405000FFF7F6FC10F4604F04D0410406D54FF48E
:10406000005010BD000C1080002010BD000402D5CF
:104070004FF4805010BD4FF4803010BD2801002057
:1040800010B5064C01202070FCF7CCFB18B9207845
:1040900020F001002070207810BD000014010020E5
:1040A00070B5846B0025E06B00B1E563206C0028DF
:1040B00016D12046FEF7C3FAA563012184F8341017
:1040C000062801D005280BD12068FFF775FEA16BEB
:1040D0000843A063A06B0028204602D0FEF76FF9CA
:1040E00070BDFEF7ACF970BD70B5846B0025206C17
:1040F00000B12564E06B002816D12046FEF79FFA38
:10410000A563012184F83410062801D005280BD1BD
:104110002068FFF751FEA16B0843A063A06B002845
:10412000204602D0FEF74BF970BDFEF788F970BD4E
:104130002DE9F04F89B00E460446FCF79BFF0025A1
:104140008346009501952F4608212068FFF7E6FC7D
:10415000002834D1B4F8500001042068FFF7AAFC0D
:1041600000282CD1401E4FF00808CDE9020830206D
:104170004FF00209CDE904090120CDE9067002A93A
:104180002068FFF747FC2068FFF7CDFD002816D117
:10419000EA4640F22A472068416B394212D1416B0E
:1041A000890204D5FFF76EFC4AF825006D1CFCF768
:1041B00061FFA0EB0B00401CEDD14FF0004009B0B7
:1041C000BDE8F08F416B090703D5C0F8388008209F
:1041D000F5E7416B890703D5C0F838900220EEE778
:1041E000416B890603D5202181630846E7E740F249
:1041F000FF518163009800BA7060019800BA306086
:104200000020DCE710B590B004460120ADF838007E
:104210002068FFF711FC002864D0606C032842D0AE
:104220002068FFF754FD00285AD100212068FFF7CD
:1042300007FC606704212068FFF702FCA0670821E3
:104240002068FFF7FDFBE0670C212068FFF7F8FB13
:10425000C4F88000606C032825D00EA92068FFF701
:1042600093FD00283CD1606C03281CD0BDF83800B9
:10427000206501042068FFF740FD002830D10021AF
:104280002068FFF7DDFB606604212068FFF7D8FB9C
:10429000A06608212068FFF7D3FBE0660C212068A8
:1042A000FFF7CEFB206704212068FFF7C9FB000D54
:1042B000E06403A92046FEF7C3F8B4F850000023D9
:1042C00002042068FFF7EAFC002809D104F110007D
:1042D00007C88DE8070094E80F00FFF7BDFB00203A
:1042E00010B010BD4FF08060FAE72DE9F8430025CB
:1042F000044600950068FFF743FC00281AD12068A7
:10430000FFF766FC4FF080784FF6FF76D8B14FF09C
:104310008057A5640098411C0091B0421AD000213A
:104320002068FFF7C7FB20B900212068FFF7DCFBFE
:1043300010B13846BDE8F88300212068FFF780FB04
:10434000C00FE7D01FE00127A7640098411C00912F
:10435000B04201D14046EDE700212068FFF7AAFBFB
:104360000028E7D14FF080412068FFF7BDFB00280F
:10437000E0D100212068FFF763FBC10FE5D04000CA
:1043800001D5676400E065640020D3E71CB50446EE
:1043900000200090019000212068FFF751FB800170
:1043A00002D54FF400601CBD69462046FFF7C0FEF1
:1043B0000028F8D10198C0030CD5B4F850000104CE
:1043C0002068FFF777FB0028EDD100212068FFF778
:1043D000BEFB1CBD4FF080601CBD1CB50446002018
:1043E0000090019000212068FFF72AFB800102D590
:1043F0004FF400601CBD69462046FFF799FE002877
:10440000F8D1019840030CD5B4F85000010420689D
:10441000FFF750FB0028EDD102212068FFF797FB42
:104420001CBD4FF080601CBD70B50C4605460022D7
:104430000F49104801F058FF90B932220E490F4839
:1044400001F07EFF60B90D48C16801F02FFE38B958
:10445000094B22461B1F2946084802F081F908B182
:10446000012070BD054801F00DFE002070BD000068
:1044700016010020B8010020F0000020EC110020FF
:1044800070B50C46054600220F49104801F02CFF7C
:1044900098B932220E490F4801F052FF68B90E4810
:1044A000C1680C4801F002FE38B9094B2246173B9F
:1044B0002946084802F054F908B1012070BD0548AA
:1044C00001F0E0FD002070BD16010020B8010020C1
:1044D000030100204C320020EC11002070B5064C86
:1044E000054601202070FCF7A9F918B92846FFF706
:1044F000C7FD2070207870BD1401002010B512484F
:1045000088B014460078C00702D0032008B010BD60
:10451000C1B1012905D0022908D003290CD00420FB
:10452000F4E76846FCF778F906980AE06846FCF775
:1045300073F90798208005E06846FCF76DF9079845
:10454000400A20600020E1E71401002070B51D46FC
:10455000164608460124A31E2A463146FCF794F964
:1045600028B900BFFCF75EF90028FBD100242046E3
:1045700070BD000038B504464620009000220C496A
:104580000C4801F0B1FE60B901220B490B4801F063
:10459000D7FE30B96B4621460848009A01F0DEFF8D
:1045A00008B1012038BD054801F06CFD002038BD80
:1045B00016010020B8010020F80000201C22002075
:1045C000FFF75EBD70B51D46164608460124A31EC2
:1045D0002A463146FCF76AF928B900BFFCF722F9F0
:1045E0000028FBD10024204670BD704700B599B06B
:1045F000012238493848FDF78DFC012237493648F9
:10460000FDF766FC33490020344B4A78302A07D244
:1046100009788DF8041030218DF8051019781CE008
:104620008DF805000A78511C8DF8041019788DF862
:104630002410092A04D0192A04D0232A06D00EE017
:10464000102100E020218DF8041008E08DF804000E
:10465000072901D2491C00E001218DF824108DF8B2
:104660000600069002900490059007904FF080405D
:10467000089080150A909DF8240000909DF8053060
:104680009DF8042016A10BA800F0CAFBC1B20BA82C
:10469000FFF7F6FE20B1002240211748FCF7E5FCA9
:1046A000012201A90C48FDF7CFFC08B1FCF7A8F9DD
:1046B0009DF82400009009489DF805309DF80420DD
:1046C0000EA16F3000F0ACFB04493839C88119B035
:1046D00000BD0000A4010020F044002038000020AC
:1046E000416C61726D3A2025783A25782C20576408
:1046F0003A2025780D0A0000000002404E657874CB
:10470000207265673A2025783A25780A5765656BE7
:104710006461793A20257800124800210122C38A79
:10472000052B01D10270C182038BFA2B01D142709B
:104730000183438BB3F5FA7F01D182704183838B70
:10474000B3F57A7F01D1C2708183C18A491CC182CD
:10475000018B491C0183418B491C4183818B491C7E
:10476000818370470000002010B5FCF7D5FFBDE83D
:104770001040FFF7D1BF000030B597B03021684638
:10478000FBF787FD14210CA8FBF783FD00252348C8
:104790001195129513951495016841F080510160AF
:1047A000006800F0805015901D48016841F4804178
:1047B00001600068022400F48040159005200090FC
:1047C0004FF480300190012002908005CDE9064031
:1047D00004200890A820CDE9090407200B90684622
:1047E000FDF7B8F9A8B90CA90F2081E831004FF402
:1047F000A0500F90E002109005210CA8FDF7C2F820
:1048000038B9E0011490119411A8FDF71DF80028A3
:1048100001D0FCF7F5F817B030BD00004038024079
:10482000007000401048016841F4700101600F48B9
:10483000016841F0010101600C4A00210832116059
:1048400002680B4B1A400260031D0A4A1A60026894
:1048500022F48022026005480C30016002495806AB
:10486000803908607047000088ED00E000380240A1
:10487000FFFFF6FE10300024F0B50268234B244DF4
:10488000244E254F254C4FF0804C984209D060456E
:1048900007D0A84205D0B04203D0B84201D0A04210
:1048A00004D122F0700E4A6842EA0E0298421BD0F0
:1048B000604519D0A84217D0B04215D0B84213D0E5
:1048C000A04211D0164DA8420ED0164DA8420BD0D2
:1048D000154DA84208D0154DA84205D0144DA84248
:1048E00002D0144DA84203D122F44075CA682A436D
:1048F00002608A68C2620A688262984201D0A0425D
:1049000001D10969016301214161F0BD000001404D
:104910000004004000080040000C0040000401407A
:1049200000400140004401400048014000180040A0
:10493000001C00400020004010B5846842EA0322B9
:1049400024F47F440A432243826010BD30B40368DC
:104950009A6822F070044A68224322F007040A6829
:1049600022439A604A6812F00F0F1FD11211082AD1
:104970001CD2DFE802F01B1B1B1B0B1D23040B6961
:10498000D1E90221006830BCFFF7D6BF0268136A84
:10499000146A24F00104146202689469096924F01D
:1049A000F00444EA011191610068036230BC704771
:1049B0000A698968006830BC00F006B80A6989682D
:1049C000006830BC00F011B810B5036A046A24F026
:1049D00001040462846924F0F00444EA021423F020
:1049E0000A020A438461026210BD10B5036A23F013
:1049F000100303628369046A23F4704343EA0232BA
:104A000024F0A00343EA01118261016210BDF0B5F8
:104A1000074602230020044612E00D5D303D0A2DBA
:104A200007D25B1EDBB24FEA830C05FA0CF5354466
:104A3000EEB223B93E54401C0223C0B20026641CCF
:104A40009442EAD3F0BD10B5806B0021C185C184CA
:104A5000FEF707FA10BD0168CA6822F49072CA60B6
:104A600001684A6922F001024A61202180F83A1067
:104A7000704710B590F83A10222901D0022010BDDD
:104A80008168B1F5805F11D00169002901681FD0EC
:104A9000496801F07F03816A4A1C82620B70C18DF4
:104AA000491E0904090CC18518D026E00269816AF3
:104AB000002A0268526805D0D2B20A80816A491C75
:104AC0008162ECE7C2F308020A80816A891CF7E779
:104AD0004A68816A4B1C83620A70E0E70168CA6811
:104AE00022F49072CA6001684A6922F001024A61A8
:104AF000202180F83A10FEF7ADFA002010BD00002A
:104B00002DE9F04104460068016921F44052E16852
:104B1000114301612168C86849F20C62904323691E
:104B2000A268E5691A4363692B431A430243CA60CA
:104B30002168486920F44072A06910434861E16926
:104B40006425B1F5004F9748974A21684FF0320825
:104B50003FD0914201D081427CD1FCF7BBFF00EBFA
:104B6000C00101EB001061688900B0FBF1F6FCF7B1
:104B7000B1FF00EBC00101EB001061688900B0FBE0
:104B8000F1F0B0FBF5F06FF01801484306EB80013F
:104B900008EB0110B0FBF5F000F0F006FCF79AFF0F
:104BA00000EBC00101EB001061688900B0FBF1F07F
:104BB000B0FBF5F006EB0016FCF78CFF00EBC00134
:104BC00001EB001061688900B0FBF1F7FCF782FF90
:104BD000D2E0914201D081423DD1FCF77BFF00EB56
:104BE000C00101EB001061684900B0FBF1F0B0FBBF
:104BF000F5F00601FCF76EFF00EBC00101EB0010C1
:104C000061684900B0FBF1F7FCF764FF00EBC001FD
:104C100001EB001061684900B0FBF1F0B0FBF5F06A
:104C20006FF01801484307EB800108EBC100B0FBAF
:104C3000F5F000F0F80006EB4006FCF74BFF00EB48
:104C4000C00101EB001061684900B0FBF1F7FCF70F
:104C500041FF3CE055E0FCF72DFF00EBC00101EB0C
:104C6000001061684900B0FBF1F0B0FBF5F00601FF
:104C7000FCF720FF00EBC00101EB00106168490068
:104C8000B0FBF1F7FCF716FF00EBC00101EB0010E1
:104C900061684900B0FBF1F0B0FBF5F06FF018016E
:104CA000484307EB800108EBC100B0FBF5F000F0D2
:104CB000F80006EB4006FCF7FDFE00EBC00101EB3F
:104CC000001061684900B0FBF1F7FCF7F3FE00EB60
:104CD000C00101EB001061684900B0FBF1F0B0FBCE
:104CE000F5F06FF01801484307EB800108EBC100B5
:104CF000B0FBF5F000F00700216830448860BDE8A3
:104D0000F081FCF7D7FE00EBC00101EB00106168F9
:104D10008900B0FBF1F6FCF7CDFE00EBC00101EB22
:104D2000001061688900B0FBF1F0B0FBF5F06FF0A6
:104D30001801484306EB800108EB0110B0FBF5F0C9
:104D400000F0F006FCF7B6FE00EBC00101EB00102E
:104D500061688900B0FBF1F0B0FBF5F006EB0016DE
:104D6000FCF7A8FE00EBC00101EB001061688900B0
:104D7000B0FBF1F7FCF79EFE00EBC00101EB001069
:104D800061688900B0FBF1F0B0FBF5F06FF018013D
:104D9000484307EB800108EB0110B0FBF5F000F091
:104DA0000F00A9E7001401400010014090F83910ED
:104DB000212901D0022070478168B1F5805F016A26
:104DC0000BD04A1C0262026809785160C18C491EEE
:104DD0000904090CC1840ED017E009880268C1F3E8
:104DE0000801516001690029016A02D0491C016271
:104DF000ECE7891CFBE70168CA6822F08002CA6000
:104E00000068C16841F04001C160002070470000A7
:104E10000148FEF727B80000F0430020FEE700003D
:104E20000FB4084B10B504A902AA039800F0DEF8ED
:104E3000044602A9002000F070FC204610BC5DF87A
:104E400014FB00001B57000802E008C8121F08C12D
:104E5000002AFAD170477047002001E001C1121FFB
:104E6000002AFBD1704700002DE9FF5F82B00021CE
:104E7000DDE90430020DDDF840B0034318D044F6FC
:104E80001050A2F2FF3242431514119801281FD08E
:104E9000A5EB0B00401C5FEA000A4FF000064E4FE6
:104EA000DFF83891B046504615D5CAF1000413E03A
:104EB000119801244AA3012801D16FEA0B0102983D
:104EC000119AC0E90031C0E9024206B0BDE8F09F86
:104ED000CBF10000DFE704460021404A491842EBCD
:104EE0000450CDE9001012E0E00707D032463B46FF
:104EF00040464946FBF7C7FA8046894632463B465C
:104F000010461946FBF7BFFA06460F466410002C00
:104F1000EAD1DDE90401DDE90023BAF1000F06DA88
:104F2000FBF7B1FA42464B46FBF7ADFA05E0FBF75B
:104F30001CFB42464B46FBF718FB04460E4600227C
:104F4000284BFBF799FB03D84FF0FF30014607E0F1
:104F50000022254B20463146FBF7EEF9FBF774FBA8
:104F6000102409E0002C0ADB0A220023FBF728F9B1
:104F7000039B30321A55641E50EA0102F2D1641CC0
:104F8000039AC4F111031444119A012A03D0012297
:104F900008430DD10AE0084304D000204FF0110B64
:104FA000119072E7A3EB0B056D1E0DE05B4504DD70
:104FB0004FF0000205F1010504E003DA4FF00002B2
:104FC000A5F10105002AECD002981199C0E902313F
:104FD000C0E9004579E70000000014400000F03F00
:104FE000300000000000F0430000E03F2DE9FF4FDB
:104FF00095B09B468946064600250FE2252877D1C5
:1050000000242746F84A0121059400E0044316F8DD
:10501000013F203B01FA03F01042F7D130782A28F3
:1050200011D06FF02F033078A0F13002092A16D882
:10503000059A44F0020402EB820203EB42021044A0
:10504000761C0590EFE759F8042B0592002A03DA45
:10505000504244F40054059044F00204761C307829
:105060002E2816D116F8010F44F004042A280DD07A
:105070006FF02F023078A0F13003092B09D807EB2D
:10508000870302EB4303C718761CF3E759F8047B48
:10509000761C30786C280FD006DC4C2817D0682896
:1050A0000DD06A2814D104E0742810D07A280FD1CA
:1050B0000DE044F400140AE044F4801401E044F4E8
:1050C00040147278824202D104F58014761C761C5A
:1050D000307866280BD013DC582877D009DC0028FC
:1050E00075D04528F6D04628F4D047281AD19DE13E
:1050F00018E0632835D0642879D0652812D195E16D
:10510000702873D008DC6728F1D069286FD06E282A
:105110000DD06F2806D1B5E073282CD0752875D036
:10512000782874D05A46179990476D1C75E1C4F3DE
:105130000250022809D003280DD0D9F80010042805
:105140000DD00D6009F1040967E1D9F80010EA17E4
:10515000C1E90052F6E7D9F800100D80F2E70D70B2
:10516000F0E719F8041B8DF8001000208DF80100FD
:10517000EA46012003E059F804AB4FF0FF30610725
:105180004FF0000102D40DE008F101018846B94258
:105190000FDA8045F8DB1AF808100029F4D108E08E
:1051A00008F1010188468142FADB1AF8081000294B
:1051B000F6D105985B46A0EB080721463846179ABA
:1051C00000F094FA284400EB080507E04DE029E1DF
:1051D0000DE01AF8010B5A4617999047B8F10108EB
:1051E000F7D25B4621463846179A13E142E00A227D
:1051F0000092C4F302524FF0000A022A08D059F874
:1052000004CB032A4FEAEC710AD00DE029E02AE032
:1052100009F1070121F00702F2E802C1914609E015
:105220000FFA8CFC4FEAEC71042A03D14FFA8CFC84
:105230004FEAEC71002907DA0A460021DCF1000C84
:1052400061EB02012D2202E0220504D52B228DF80C
:105250000420012203E0E20701D02022F7E7904674
:1052600059E00A2102E010220DE010214FF0000A5F
:1052700000910BE010224FF0000A44F004040827CC
:10528000009203E008224FF0000A0092C4F3025299
:10529000022A05D059F804CB0021032A08D009E0DE
:1052A00009F1070121F00702F2E802C1914605E089
:1052B0001FFA8CFC042A01D10CF0FF0C4FF00008FF
:1052C000220728D5702806D0009B83F0100353EAEC
:1052D0000A0305D00EE040228DF80420012208E0E8
:1052E0005CEA010206D030228DF804208DF805001A
:1052F00002229046009B83F0080353EA0A030AD176
:105300005CEA010201D1620705D530228DF8042044
:105310004FF001087F1E582804D034A003900EA837
:1053200002900DE036A0F9E753466046009AFAF77E
:1053300047FF84460398825C0298401E02900270E8
:105340005CEA0100F0D1029806A9081A00F1200ACF
:10535000600702D524F4803400E00127574502DDC0
:10536000A7EB0A0000E0002000EB0A01009005987E
:105370004144401A0590E00306D45B462146179A43
:10538000059800F0B3F90544002706E001A85A4645
:10539000C05D179990476D1C7F1C4745F6DBE00305
:1053A0000CD55B462146179A059800F09FF90544F5
:1053B00004E030205A46179990476D1C0099481E0A
:1053C00000900029F5DC08E0029802995A4600781E
:1053D000491C0291179990476D1CBAF10001AAF17E
:1053E000010AF1DC65E100000928010030313233A7
:1053F0003435363738396162636465660000000011
:1054000030313233343536373839414243444546FA
:105410000000000000F058F90544761C30780028A0
:105420007FF4ECAD19B02846BDE8F08F620700D4D8
:10543000062709F1070222F0070CFCE80223E146E7
:1054400003F000485FEA080C02D00FF2702C0DE068
:105450005FEA045C02D50FF2682C07E05FEAC47CC7
:1054600002D00FF2602C01E0AFF2700C4FF0FF3869
:1054700023F00043CDF850C065280CD006DC452849
:1054800009D046281DD047283DD13DE0662818D0D8
:1054900067287ED138E00021112F01DB112000E0C8
:1054A000781CCDE9000106A90EA8FFF7DDFCDDE9B7
:1054B0000F010E9A03910021009207F1010A049155
:1054C0004DE04FF000400097CDE9011006A90EA86D
:1054D000FFF7CAFCDDE90F0203920E9B119900222F
:1054E000DDF80CA00093049211B9791C00EB010ABD
:1054F000B7EB0A0004D4C0F1FF3007F1010A0490B1
:10550000AAEB0700019044E0012F00DA01270021F7
:10551000112F01DD112000E03846CDE9000106A978
:105520000EA8FFF7A1FCDDE90F010E9A03910021FF
:1055300004910092BA4621070CD40399514500DA30
:105540008A46BAF1010F05DD009AAAF10101515C0A
:10555000302908D0B84202DA10F1040F06DA01212E
:10556000CDE9011015E0AAF10101E9E7002805DC09
:10557000049901440491AAEB000102E0411C514549
:1055800000DD8A460499401A401C01904FF000400B
:105590000290200704D40198504501DBCDF8048027
:1055A00000208DF84F0002980DF14F07B0F1004F29
:1055B00025D02B200E9002984FF0020800280CDA1C
:1055C000404202902D200E9007E00A210298FAF73F
:1055D0007EFE3031029007F8011DB8F10001A8F1FC
:1055E0000108F2DC02980028EFD1791E0E980870AD
:1055F000307800F0200040F0450007F8020D12A8B6
:10560000C01B00F107081498007800B1012000EBDE
:105610000A01019801EBE07105984144401A401ECF
:105620000590E00306D45B462146179A059800F0E2
:105630005DF805441498007818B15A4617999047B8
:105640006D1CE00324D55B462146179A059800F0AF
:105650004DF805441CE00498002807DBDDE9030150
:10566000884203DD0098405C179901E017993020CB
:105670005A469047049805F10105401C0490019892
:10568000401E019004D12E205A46179990476D1C58
:10569000BAF10001AAF1010ADDDC05E017F8010BFF
:1056A0005A46179990476D1CB8F10001A8F10108FE
:1056B000F4DC5B462146179A0598ABE62D00000006
:1056C0002B000000200000002DE9F04104460025D9
:1056D0001E461746880404D405E039462020B0470A
:1056E0006D1C641EF9D52846BDE8F0812DE9F04116
:1056F000044600251E469046C80301D5302700E029
:105700002027880404D505E041463846B0476D1C83
:10571000641EF9D52846BDE8F0810A68531C0B6069
:1057200010707047F8B50546808C0C46762801D07D
:10573000772857D1012305F13202D021284601F004
:1057400081FEE8BB95F83200582801D0602849D185
:10575000B622E021284602F033F888BB01236A46CE
:10576000F321284601F06EFE0028F7D19DF80000D5
:10577000C007F3D1284601F00DFE002833D095F87C
:105780003200602804D1284601F071FE00282AD09A
:1057900060796178400140EA8100C2B2F521284673
:1057A00002F00EF860B92078012801D100202070A5
:1057B000E078A178400140EA81002178084300E0C8
:1057C00010E0C6B295F83200602805D12279F221A6
:1057D000284601F0F5FF28B93246F421284601F0A9
:1057E000EFFF08B10020F8BD0120F8BD03210170D2
:1057F000002242708170C1700171417170472DE9C2
:10580000FC41044690F8320090460F461E46602840
:1058100004D00EB100201860002602E00EB108236B
:1058200000E006236A46F721204601F00BFE10B186
:105830000020BDE8FC819DF800009DF804200103D4
:105840009DF80100238841EA00119DF80200B4F997
:10585000025041EA10119DF80300000340EA0210D3
:105860009DF8052040EA1210C210A2EB4302C3EBE0
:1058700020104043B4F904306A430013D212584355
:1058800002EBA03505EB85008030001238602A4617
:10589000204600F007F9C8F80000AEB3BDF80600D6
:1058A000E18B40BA8003A0EB0150A5F59635B4F921
:1058B0002010227F01FB150094F922106A436943EE
:1058C0004FF40043891203EBE22251439A0102EBA9
:1058D000A121B4F91A2000F58040514301F500518F
:1058E000C01389134843C1134943227EC911514350
:1058F000B0EB211001D5002004E04FF0C8518842E0
:1059000000DD084600133060012092E7FEB51C0060
:1059100015460E4601D002AB00E0002301AA6946FD
:10592000FFF76DFF00281FD09DED000ADFED0F0A85
:10593000B8EEC00A80EE201ADFED0D0A86ED001ADF
:105940009DED010AB8EE400A20EE200A85ED000A1E
:105950004CB19DED020ADFED070AB8EE400A20EED9
:10596000200A84ED000A0120FEBD00000000C842AC
:105970000000803B0000803A10B504460020E07033
:10598000401E2063204601F05AFC08B1042010BDDF
:1059900004F2322001F0A6FBA0F52A41553901D0CE
:1059A000032010BD94F83400E92805D0EB2814D169
:1059B00094F83600902810D104F16A0001F087FBBA
:1059C0000749B1EB002F06D004F1860001F07FFB00
:1059D0000449884201D1002010BD022010BD000002
:1059E0000046415446415433F0B50022144D13464D
:1059F00005EB021426685EB10768BE4209D16668ED
:105A00008768BE4205D1A4684669B44204D000E06C
:105A10000123521C022AEBD3022A01D069B904E007
:105A20004BB9022907D01220F0BD05EB0210808986
:105A3000B0F5807F01D00020F0BD1020F0BD000047
:105A4000D045002030B50021054B0C4603EB011278
:105A50001568854200D11460491C0229F6D330BD77
:105A6000D04500200268C06A938952895343B1FB34
:105A7000F3F1001D04C81AB1914203D3891AF8E763
:105A8000002070470068084470478269891E921E92
:105A90008A4201D800207047C26A408901FB002079
:105AA000704700002DE9F05F04468B465349D0173C
:105AB0005118A1FB0123B4F9106040F1FF30A2FBA3
:105AC000069C00FB013301FB0033F71703FB06C6FE
:105AD00002FB0768B4F90E504FF0000AA5FB017CE9
