:020000040800F2
:10000000A87500209D01000883300008712A0008AF
:10001000813000081B0800081D4400080000000093
:10002000000000000000000000000000773D000814
:100030004D09000800000000A5300008913E0008AE
:10004000B7010008B7010008B7010008B7010008B0
:10005000B7010008B7010008B7010008B7010008A0
:10006000B7010008B7010008B701000889080008B7
:10007000B701000895080008B7010008B70100089B
:10008000B7010008A1080008B7010008B70100087F
:10009000B7010008B7010008B7010008B701000860
:1000A000B7010008B7010008B7010008B701000850
:1000B000B7010008B7010008B7010008B701000840
:1000C000B7010008B7010008B7010008B701000830
:1000D000B7010008B7010008B7010008B701000820
:1000E00053090008C5300008B7010008B70100082F
:1000F000B7010008B7010008B7010008AD08000803
:10010000B701000835320008B7010008B701000840
:10011000B7010008B7010008B7010008B7010008DF
:10012000B7010008B7010008B7010008B9080008C6
:10013000B7010008B7010008B7010008B7010008BF
:10014000B7010008B7010008B7010008B7010008AF
:10015000B7010008C5080008B7010008B70100088A
:10016000B7010008B7010008B7010008B70100088F
:10017000B7010008B7010008B7010008000000003F
:10018000B7010008B7010008DFF80CD000F05CFAF6
:100190000048004721630008A875002006488047F2
:1001A00006480047FEE7FEE7FEE7FEE7FEE7FEE75C
:1001B000FEE7FEE7FEE7FEE74D3F00088901000885
:1001C0002DE9F05F0546002092469B46884606468C
:1001D000814640241BE0284641464746224600F01F
:1001E0006AF853465A46C01A914110D31146184630
:1001F000224600F051F82D1A67EB01084F462246BF
:100200000120002100F048F817EB00094E41201EA4
:10021000A4F10104DFDC484631462A464346BDE8E6
:10022000F09FD2B201E000F8012B491EFBD27047CB
:100230000022F6E710B513460A4604461946FFF7B2
:10024000F0FF204610BD00F0004230F000400AD020
:10025000C10D01F56071C0F3160042EA0151C208F8
:1002600040071143704700200146704730B50B46E8
:10027000014600202022012409E021FA02F59D42D6
:1002800005D303FA02F5491B04FA02F52844151EAA
:10029000A2F10102F1DC30BD202A04DB203A00FA91
:1002A00002F1002070479140C2F1200320FA03F3CD
:1002B000194390407047202A04DB203A21FA02F0CB
:1002C0000021704721FA02F3D040C2F12002914090
:1002D0000843194670472DE9FE4F804681EA030026
:1002E000C00F0C46009021F0004123F00045B8EB10
:1002F0000200A94105D24046214690461C460B46C5
:10030000024623F00040104347D0270DC7F30A00F0
:10031000C3F30A510290401A019040286BDAC3F3EC
:10032000130040F4801B0098924620B10023D2EBCA
:10033000030A63EB0B0B01985946C0F1400250468B
:10034000FFF7AAFF06460D4650465946019A00F0AF
:100350008DF910EB08006141002487EA115284EA0C
:10036000E7731A4340D0009A62B3019A012A4FEA18
:10037000075215DC001B61EB02014FF0004202EA5C
:100380000752CDE90042001C41F5801132462B4650
:1003900000F08DF903B0BDE8F08F40462146F9E743
:1003A000001B61EB0201001C41F5801300185B414A
:1003B0002018A2F5001747EB030140EAD570B619E3
:1003C0006D4111E06D084FEA360645EAC0754FEA07
:1003D0000752001B61EB0201001C41F58011490826
:1003E0004FEA30000019514132462B4603B0BDE8B8
:1003F000F04F00F04DB90098012240000023D0EBEF
:10040000020263EBE073009821464FEAE074B8EB18
:10041000000061EB0401E9E783F000435BE781F052
:10042000004158E72DE9FE4F81EA030404F000443F
:1004300021F0004100944FF0000B23F0004350EAFC
:1004400001045ED052EA03045BD0C3F30A54C1F343
:100450000A552C44A4F2F3340194A0FB0254C1F3D6
:10046000130141F48011C3F3130343F4801301FB20
:10047000024400FB034E840A970A44EA815447EA87
:100480008357A4FB076802958D0A05FB07854FEA91
:10049000932C04FB0C542705029D4FEA065847EAAB
:1004A0001637B5EB08056EEB070C870E920E47EA80
:1004B000811742EA8312A7FB0201B6EB0B0164EB42
:1004C00000042B0D43EA0C335E1844EB1C50DA4653
:1004D0005146E7FB0201C5F313044FEA0B3343EA2D
:1004E00014534FEA0432019C43EA0603A4F10C04BE
:1004F0000294009CCDE900B400F0D9F803B0BDE847
:10050000F08F00200146F9E72DE9F04D81EA030460
:1005100004F0004B21F0004514464FF0000A23F090
:10052000004150EA050220D054EA01021DD0C5F373
:100530000A570246C5F31303C1F31300C1F30A5669
:1005400040F4801543F48013A7EB0608101BD64631
:1005500008F2FD3873EB050002D308F1010801E051
:1005600092185B41B8F1000F03DA00200146BDE8A4
:10057000F08D00204FF48011064684460EE0171BD4
:1005800073EB050705D3121B63EB050306434CEA27
:10059000010C49084FEA300092185B4150EA01070C
:1005A000EDD152EA030012D082EA040083EA050189
:1005B000084305D0101BAB4106D20122002306E000
:1005C00000224FF0004302E06FF0010253101AEBDB
:1005D00006004CEB085110EB0A0041EB0B01BDE8A3
:1005E000F04D00F055B8C1F30A52C1F3130140F2C7
:1005F000FF3341F480119A4202DA0020014670472D
:1006000040F233439A42A2F2334202DC5242FFF7F5
:1006100052BEFFF741BE000030B5041E71F1000468
:1006200004DB4FF00044404264EB0101141E73F1FF
:10063000000405DB1C464FF00043524263EB040309
:10064000994208BF904230BD064C074D06E0E06875
:1006500040F0010394E8070098471034AC42F6D309
:10066000FFF796FDF867000818680008202A06DBE7
:10067000CB17203A41FA02F043EAE07306E041FA70
:1006800002F3D040C2F1200291400843194670475E
:1006900010B5141E73F1000408DA401C41F100018A
:1006A00092185B411A4301D120F0010010BD2DE9E1
:1006B000F04D92469B4611B1B1FA81F202E0B0FAD8
:1006C00080F220329046FFF7E7FD04460F4640EAED
:1006D0000A0041EA0B0153465A46084313D011461B
:1006E00053EA010019D0C8F140025046FFF7E3FD7C
:1006F00005460E46504659464246FFF7CDFD084393
:1007000005D0012004E020463946BDE8F08D0020E8
:10071000054346EAE0762C4337430A986305E40A2A
:10072000A0EB08000022FD0A44EA47540A3002D533
:1007300000200146E9E7010510196941DDE9084596
:1007400000196941BDE8F04DA2E7000010B5012491
:100750006102024800F082FB204610BD0004024006
:10076000704700000146014801F0EDBC1C3200203A
:1007700010B5044801F0F9FC042801D0012010BD97
:10078000002010BD1C32002010B500F015F8012823
:1007900001D0012010BD074801F0DEFD040006D1A4
:1007A0004FF40061034801F0A4FB00B1012420468E
:1007B00010BD00001C32002008B501208DF800009B
:1007C000FFF7C4FF10B900208DF800009DF800006D
:1007D00008BD000038B50024009313460A460146C0
:1007E000034801F0A3FE00B10124204638BD0000FB
:1007F0001C3200207047000038B5002400931346D7
:100800000A460146034801F073FF00B10124204667
:1008100038BD00001C3200207047FEE710B50022F2
:100820001349144804F088FE134C20B100224021E3
:10083000204600F01CFB02221049114804F0A8FEDB
:1008400020B100224021204600F011FB0B4B022278
:100850000C3B0CA10A4805F0ABF820B10022402166
:10086000204600F004FBBDE81040054804F032BD0E
:1008700067000020D4000020000002405400002047
:100880003821002030300000014800F0B5B80000E9
:100890001C330020014800F0AFB80000DC3300201A
:1008A000014800F0A9B800007C330020014800F0A6
:1008B000A3B800003C340020014800F09DB80000BF
:1008C000BC340020014800F097B800001C3500201F
:1008D00001681823CAB2103AB2FBF3F2054B6FF36A
:1008E0000901032A9B5CC36500D9091D816508467F
:1008F000704700003C67000810B5014600208B6976
:100900008A6A4FF0C07453B1B3F5005F15D072B16D
:10091000012A0CD0022A0AD0032A09D104E01AB114
:10092000012A06D0022A03D1C96AC90100D50120D3
:1009300010BDC96AA142FAD010BD002AF7D0012A21
:10094000F2D0022AF3D0032AF3D010BD704700F092
:100950008DB910B54FF4006000F09CF94FF40050D1
:1009600000F098F9BDE810404FF4004000F092B953
:10097000054C4FF47A75C021204600F074FA2846E1
:10098000FFF7E5FFF7E7000000000240002200F05B
:1009900001B8000030B50E4B054601205C7A002CF2
:1009A00014D1587A1C54587A03EB800045605D7A64
:1009B00003F108002A54587A421C5A7230300870E9
:1009C0003A2048702F208870CC70002030BD000085
:1009D0009C35002090F83510022903D08021416514
:1009E00001207047052180F835100068016821F06A
:1009F00001010160002070472DE9F84304464FF0E3
:100A00000009CDF8009063484FF41651A56D0068B9
:100A1000B0FBF1F72E6894F85C10082000FA01F1A1
:100A200031420FD021680A6852070BD50A6822F0BC
:100A300004020A6094F85C108840A860606D40F081
:100A40000100606594F85C104FF0010808FA01F0AD
:100A5000304208D021684969090604D5A860606D54
:100A600040F00200606594F85C1004208840304239
:100A700008D021680968890704D5A860606D40F036
:100A80000400606594F85C1010208840304218D053
:100A900021680968090714D5A8602068016849031E
:100AA00004D50068000308D5A16C07E00168C905FA
:100AB00003D4016821F008010160216C09B12046CE
:100AC000884794F85C1020208840304231D021685B
:100AD0000968C9062DD5A86094F835000528206856
:100AE000016806D0490347D5006800031DD4616C36
:100AF0001CE021F0160101602068416921F08001AD
:100B00004161206C08B9A06C20B12068016821F017
:100B10000801016094F85C103F208840A86084F8C8
:100B2000349084F83580216D1FE0E16B09B12046D7
:100B30008847606D00282BD0606DC00714D0052059
:100B400084F835002068016821F0010101600098F7
:100B5000401C0090B84203D820680068C007F6D156
:100B600084F8349084F83580E16C002910D001B00D
:100B70002046BDE8F04308470168C905D5D401689F
:100B800021F01001016084F8349084F83580CCE7BE
:100B9000BDE8F883780000202DE9F041044600F01C
:100BA0006BF906465CB1002584F83450022084F8C5
:100BB00035002068016821F0010101600DE001208D
:100BC000BDE8F08100F058F9801B052805D92020E8
:100BD0006065032084F83500F2E720680068C007EC
:100BE000F0D12268116820480140D4E9010318437C
:100BF000D4E903363343184363691843A3691843A0
:100C0000E3691843236A18430843616A042903D13E
:100C1000D4E90B1319430843106020684069666AE1
:100C200020F0070130460E43012704280CD1A06AAA
:100C30000643E06A40B12046FFF75EFE20B1402047
:100C4000606584F83570BAE7206846612046FFF792
:100C50003FFE94F85C203F2191408160656584F8F7
:100C600035700020ACE700003F8010F070B50446FE
:100C700000F002F90546601C02D0044800780444E4
:100C800000F0FAF8401BA042FAD370BD6C000020BF
:100C900070470000044910B50A68024202D008609B
:100CA000FFF7F6FF10BD0000143C01402DE9F84F9E
:100CB000DFF87CB100224FF001084FF0030A4FF03B
:100CC0000F090BF1040E00BF0B6808FA02F4234071
:100CD000A3426ED14D68022D01D0122D0ED1D50840
:100CE00000EB850CDCF820505607F70E09FA07F6E2
:100CF000B5430E69BE402E43CCF82060066855000F
:100D00000F790AFA05FC07F0030726EA0C06AF4044
:100D1000374307604E68012E05D0022E03D0112EF6
:100D200001D0122E0ED18668CF6826EA0C06AF409D
:100D3000374387604668A6430C79C4F30014944097
:100D400034434460C6688C6826EA0C06AC403443E1
:100D5000C4604C68E40065D5364C256845F4804590
:100D60002560246822F0030504F480440094324C8A
:100D70002E19D6F8084895072F0F09FA07F5AC4346
:100D80002E4DA84201D1002524E02D4DA84201D1CD
:100D900001251FE02B4DA84201D102251AE02A4D62
:100DA000A84201D1032515E0284DA84202D104250F
:100DB00010E037E0264DA84201D105250AE0254D77
:100DC000A84201D1062505E0234DA84201D10725FF
:100DD00000E00825BD402543C6F80858DBF8004070
:100DE0005D464E689C43F60300D51C432C60DEF83C
:100DF000004075464E689C43B60300D51C432C60EA
:100E00000B4D08352C684E689C43F60200D51C43F8
:100E10002C60074D0C352C684E689C43B60200D5FB
:100E20001C432C60521C102AFFF44EAFBDE8F88F13
:100E3000003C0140443802400030014000000240C4
:100E40000004024000080240000C02400010024072
:100E50000014024000180240001C024000690840D3
:100E600000D00120704742694A40426170470AB190
:100E7000816170470904FBE7014880687047000002
:100E80006C00002090F83D007047000070B5040031
:100E900004D094F83D00002510B106E0012070BD9B
:100EA00084F83C50204600F011F9242084F83D00DD
:100EB0002068016821F00101016000F091FB3349D5
:100EC0002268B0FBF1F15160314A6368934206D960
:100ED0004FF4967359434FF47A73B1FBF3F12368DF
:100EE000491C1962616891420BD84900B0FBF1F2CC
:100EF000C2F30B02042A01D2042019E0B0FBF1F086
:100F000016E0A3689BB301EBC10202EB0112B0FB38
:100F1000F2F242F48042120530D04BB301EBC10231
:100F200002EB0111B0FBF1F040F4804040F40040CE
:100F30002168C861D4E90701084321680860D4E941
:100F40000310084321688860D4E90501084321683B
:100F5000C8602068016841F001010160256420201B
:100F600084F83D00256384F83E50002070BD00E009
:100F700006E001EB4102B0FBF2F2CCE70120D7E73B
:100F800001EB4101B0FBF1F0D0E7000040420F005F
:100F9000A08601002DE9F84F1F4690468A46044678
:100FA000DDF82890FFF768FF064694F83D002028FA
:100FB0007ED11923012243492046009601F0DFFD2E
:100FC00000287DD194F83C00012879D0012084F8D4
:100FD0003C0020680168C90703D1016841F00101A4
:100FE00001602068016821F400610160212084F81B
:100FF0003D00102084F83E0000252564C4F82480BC
:1010000067853148E062608D208533464A46514607
:10101000204601F043FD28B1206C84F83C500428A0
:101020004CD00DE0206841698069009030E0324684
:101030004946204601F018FE28B1206C042838D01B
:101040000320BDE8F88F606A411C61622168007866
:101050000861608D401E6085208D401E80B2208515
:1010600021684A69D24352070BD450B1606A421CCE
:10107000626200780861608D401E6085208D401E90
:10108000208532464946204601F052FD0028D4D141
:10109000208D0028CBD154F83D0B016841F400713C
:1010A0000160202004F81E09E57765770020C8E775
:1010B00006E02068016841F4007101600120C0E78A
:1010C0000220BEE7020010000000FFFF2DE9F04FF4
:1010D00087B0044614216846FFF7AAF8514FDFF89D
:1010E0004081D4F800C04F48122101220323042676
:1010F000DFF834B1103700254FF0400A4FF4806913
:10110000C44542D1D0F800C04CF0020CC0F800C079
:10111000006800F002000590C0208DE84F0069468D
:101120005846FFF7C3FD386840F40010386038684F
:101130003F4E00F4001005903C4830604FF00078BE
:10114000C6E90185C6E903597561B561F561356286
:101150004F4630467562FFF71FFD08B1FFF708FCE8
:10116000A663B463334E3148C6E903577561B56170
:10117000F56135629030756286E80105304647E0DA
:101180006663B46307B0BDE8F08FDFF8AC80C44598
:10119000F8D1D0F800C04CF0020CC0F800C00068D4
:1011A00000F0020005904FF440608DE84F00694662
:1011B0005846FFF77BFD386840F480003860386897
:1011C0001E4E00F48000059018484FF060673030E4
:1011D0003060C6E90175C6E903597561B561F5610D
:1011E0003562C84630467562FFF7D6FC08B1FFF796
:1011F000BFFBA663B463124E0C48C6E90358756181
:10120000B561F5613562A830756286E881043046C3
:10121000FFF7C2FC0028B3D0FFF7AAFBB0E700003D
:101220000054004030380240000402401060024088
:101230001C3300207C33002000580040DC330020A9
:101240003C34002002488168027811448160704774
:101250006C0000200B4810B5016841F4007101607A
:10126000016841F480610160016841F480710160AE
:10127000032000F06DF8002000F006F800F024F8DC
:10128000002010BD003C024070B50D4D04464FF4E7
:101290007A712878B1FBF0F00A490968B1FBF0F0E7
:1012A00001F0F3FA48B9102C07D200222146501E53
:1012B00000F02EF800206C6070BD012070BD0000B1
:1012C0006C000020780000200A4808B5016841F44D
:1012D00080410160006800F4804000900548001FD4
:1012E000016841F080510160006800F0805000907A
:1012F00008BD00004438024000F01F020121914067
:101300004009800000F1E020C0F8001170470000A3
:10131000F0B40E4B1B680C46C3F30223C3F1070560
:10132000042D00D90425191D072901D2002300E04E
:10133000DB1E012606FA05F1491E214099409E4018
:10134000761E16403143F0BC01F09CBE0CED00E06F
:10135000064900F0070208684FF6FF03184040EA0C
:101360000220034A10430860704700000CED00E0C3
:101370000000FA052DE9F843054600684FF0010921
:10138000C1074FF0000601D1400727D5DFF80C81D7
:10139000C8F86860FFF770FD0746414C05E000BFE4
:1013A000FFF76AFDC01B022857D820680001F7D458
:1013B00068688101287A41EA0070394984310860FF
:1013C000C8F86890FFF758FD074604E0FFF754FDA2
:1013D000C01B022841D820680001F7D52878800773
:1013E00052D52F484030016841F0805101600068BB
:1013F0002C4C00F080500090206840F480702060F9
:10140000FFF73AFD074604E0FFF736FDC01B022850
:1014100023D82068C005F7D5214C7034206810F41B
:10142000407020D0A98901F4407181421BD020680E
:101430001D4920F44070C1F800900E6020602068C3
:10144000C00710D0FFF718FD064641F2883707E0C5
:10145000FFF712FD801BB84202D90320BDE8F883D4
:1014600020688007F4D5E9680D48C1F301220830EF
:10147000032A0BD0016821F4F81101602068A989C2
:10148000C1F30B01084320600020E7E70268074B27
:1014900022F4F81219400A430260EFE700004742C5
:1014A0000038024000700040400E4742FFFCFF0F32
:1014B0002DE9F0470E46050065D0DFF81481D8F815
:1014C0000000F7B200F00F00B04207D288F80070B9
:1014D000D8F8000000F00F00B04254D128683D4C0D
:1014E000810712D5400703D5206840F4E050206002
:1014F0002878000703D5206840F460402060206809
:10150000A96820F0F000084320602878C0072DD09B
:10151000304968680839012812D0022813D00328FE
:1015200011D00968890700292DDA216821F003010B
:1015300001432160FFF7A0FC814641F2883A0EE0AA
:1015400009688903EFE709688901ECE7FFF794FC74
:10155000A0EB0901514502D90320BDE8F0872068BE
:10156000696800F00C00B0EB810FEFD1D8F80010E3
:10157000404601F00F01B14207D90770006800F042
:101580000F00B04201D00120E7E72878400705D5D9
:101590002068E96820F4E0500843206028780007BC
:1015A00006D52068296920F4604040EAC100206027
:1015B00000F036F82168084AC1F30311515CC840B5
:1015C000064908600020FFF75FFE0020C5E7000025
:1015D000003C0240083802404467000878000020C0
:1015E0000448054900680968044AC1F38221515C36
:1015F000C84070477800002008380240546700084F
:101600000448054900680968044AC1F34231515C45
:10161000C84070477800002008380240546700082E
:10162000154810B5006810F00C02144813D0411092
:10163000042A0FD0082A0ED10F4C241F22682368D9
:1016400002F03F025B0207D52068C0F38810A0FBC0
:10165000010106E0084610BD2168C1F38811A1FB15
:1016600000010023FEF7ACFD2168C1F30141491CD4
:101670004900B0FBF1F010BD083802400024F4002E
:101680002DE9F84F050076D02878DFF8F8B2BE4C87
:10169000C00749D0DBF800105846C1F38101012989
:1016A00008D00068C0F3810002280AD1201D00681C
:1016B000400206D52068800336D568680028E2D04D
:1016C00032E06868B0F5803F10D0B0F5A02F2068F8
:1016D00010D020F480302060206820F4802020602A
:1016E0006868A0B1FFF7C8FB06460CE0206840F42C
:1016F0008030F4E740F480202060F7E7FFF7BCFB80
:10170000801B642873D820688003F7D50CE0FFF7AE
:10171000B3FB064605E000BFFFF7AEFB801B642865
:10172000F0D820688003F7D42878DFF8608280073B
:101730004FF000093ED5DBF80010584611F00C0FB1
:1017400009D00068C0F3810002280BD18D48001F2A
:101750000068400206D42068800715D5E868012893
:1017600009D111E0E868B8B10120C8F80000FFF71E
:1017700083FB064605E002E1FFF77EFB801B0228A3
:10178000C0D820688007F7D52068296920F0F800C4
:1017900040EAC10020600DE0C8F80090FFF76CFB44
:1017A000064604E0FFF768FB801B02281FD820686C
:1017B0008007F7D42878000722D5724E74486969EB
:1017C0006C3671B101210160FFF756FB074604E05A
:1017D000FFF752FBC01B022809D830688007F7D5F5
:1017E0000EE0C0F80090FFF747FB074605E083E0F6
:1017F000FFF742FBC01B02287ED830688007F7D471
:101800002878400768D5DFF87CA100270AF1380A5C
:10181000DAF80000C0000BD4DAF8001041F0805173
:10182000CAF80010DAF80000012700F0805000909C
:10183000584E3068C00510D4306840F48070306075
:10184000FFF71AFB009005E0FFF716FB0099401A1E
:10185000022851D83068C005F6D54A4EA8686836C7
:1018600001280FD00528306810D020F0010030602A
:10187000306820F004003060A868B8B1FFF7FCFAC7
:1018800000900FE0306840F00100F4E740F0040001
:101890003060F7E7FFF7F0FA0099411A41F288301B
:1018A000814264D830688007F4D50EE0FFF7E4FA8F
:1018B000009007E0FFF7E0FA0099411A41F2883002
:1018C000814254D830688007F4D42FB1DAF8001080
:1018D00021F08051CAF80010A869C0B3DBF80010ED
:1018E000C1F3810102294AD00228484607D0C8F82E
:1018F0006000FFF7C1FA00E039E005463AE04746EC
:10190000C8F86000FFF7B8FA064604E0FFF7B4FA3B
:10191000801B02282BD820688001F7D4D5E9070165
:101920000843A96A1C4A490802EB01416A6A41EA74
:101930008211084395F82C1040EA01611148001FFC
:10194000016001203866FFF797FA054605E014E0CC
:10195000FFF792FA401B022809D820688001F7D5CA
:101960000BE000BFFFF788FA401B022802D90320D2
:10197000BDE8F88F20688001F4D40020F8E701204A
:10198000F6E70000083802400038024000004742F5
:10199000800E4742007000400000FFFF7047704714
:1019A00010B504460068C168C9050CD58068C0043C
:1019B00009D52046FFF7F3FF2068C16801F08001D8
:1019C00061F4C071C1602068C16889050CD5806868
:1019D000800409D52046FFF7E1FF2068C16801F0C7
:1019E000800161F42071C16003494FF40030086048
:1019F0000120607710BD0000143C014010B5006864
:101A00000B4641680D480140080CD870C1F304240E
:101A10005C7001F03F049C70C1F34231197052B9FF
:101A200001F05AFBD870587801F056FB587098783E
:101A300001F052FB9870002010BD00003FFFFF0036
:101A400010B50B460168896A596001680969C1F3DC
:101A50000E019960006801680E480140C1F305401D
:101A60001870C1F306245C7001F07F049C70402460
:101A700004EA1141D97052B901F02EFB1870587860
:101A800001F02AFB5870987801F026FB987000202E
:101A900010BD00007F7F7F0070B5040002D0607F22
:101AA00010B106E0012070BD00202077204600F034
:101AB00049F8022060772168CA20486221685320D3
:101AC0004862204601F01CFBFF25042618BB206855
:101AD00081681B4A114081602168886862681043F0
:101AE000D4E904231A43104388602168E068086140
:101AF00020680169228941EA024101612068C168C8
:101B000021F08001C16020688068800607D42046EB
:101B100000F0D0F918B1206845626677C2E7206806
:101B2000016C21F4802101642068016CA2691143D9
:101B300001642068456201206077002070BD0000CC
:101B4000BFFF8FFF10B50068084988420CD10849D3
:101B500001200860002211462920FFF7D9FBBDE8CB
:101B600010402920FFF7C8BB10BD0000002800402E
:101B70003C0E4742F8B503465E480C464FF4FA4126
:101B80000068B0FBF1F0491148430090187F01282C
:101B900049D001261E7702205877186800258068F2
:101BA0004FEA4060F2B3002859DA207801F094FA45
:101BB00094F8200001F090FAA0782178E27840EAC9
:101BC00001406178090241EA0241084394F820107B
:101BD00040EA0160E169A269084361691F6808433E
:101BE00061681143CA227A621F6853227A62626A6C
:101BF000FF27B2F5807F1A684FF0030C946851D02C
:101C000024F4007494601A68D46804F0800464F4C6
:101C10002074D4601A68009CB4F1010ECDF800E085
:101C200061D31EE001E00220F8BD002800DBE57072
:101C3000207801F05AFA0204607801F056FA42EA7C
:101C40000022A07801F051FA0243E07842EA004213
:101C500094F8200001F049FA42EA0060BAE7E57022
:101C6000A6E7D468A407D6D51062186881641868FE
:101C7000816841F4007181601868816841F4005105
:101C800081601D48016841F4003101601A48083044
:101C9000016841F400310160186847625E771D7782
:101CA0000020F8BD24F4807494601A68D46804F0AD
:101CB000800464F4C074D4601A68009CB4F1010E0E
:101CC000CDF800E00FD3D468E407F6D0D0611868EF
:101CD00041641868816841F4807181601868816886
:101CE00041F48051CCE7576283F81DC01D77032073
:101CF000F8BD000078000020003C01402DE9F047CD
:101D00000446007F0B4601281FD04FF0010984F8DC
:101D10001C9002206077DAB19878D97840EA0145C2
:101D200058781978000240EA413005432168CA20FA
:101D30004862216853204862204601F0E1F90026FC
:101D4000FF274FF0040860BB1AE00220BDE8F087CF
:101D50005878C10603D500F0EF000A305870D878E3
:101D600001F0C3F90204587801F0BFF942EA0022F9
:101D7000987801F0BAF90243187842EA4035D5E77D
:101D80000F480540206845602068C16821F0800147
:101D9000C1602068806880060AD4204600F08AF876
:101DA00030B12068476284F81D8026770120CDE796
:101DB0002068476284F81D9026770020C6E700005F
:101DC0003FFFFF002DE9F0470446007F0D46012844
:101DD00011D04FF0010A84F81CA00220607720681F
:101DE000002680684FEA406042B100281ADA28785D
:101DF00001F072F917E00220BDE8F087002800DB4F
:101E0000EE70287801F071F90204687801F06DF93C
:101E100042EA0022A87801F068F90243E87842EA31
:101E200000470AE0EE70A878297840EA0147687810
:101E3000E978000240EA014007432168CA2048626D
:101E4000216853204862204601F05AF94FF0FF08FC
:101E50004FF00409E0B91648074020680760206881
:101E6000816821F480218160D5E90301084321685C
:101E70008A68104388602068C16821F08001C160D1
:101E80002068806880060BD4204600F013F838B133
:101E90002168C1F8248084F81D9026770120ABE7E3
:101EA0002168C1F8248084F81DA026770020A3E7CC
:101EB0007F7F7F0070B504460068C16821F0A001F3
:101EC000C160FEF7D9FF05464FF47A7607E000BF00
:101ED000FEF7D2FF401BB04201D9032070BD20683D
:101EE000C0688006F4D5002070BD10B5FEF738FC40
:101EF00010BDFEB5044603200D4684F83400606C26
:101F0000032820D0B5F5805F1DD0B5F5006F05D052
:101F100045B1A06B40F00060A06309E0204601F0ED
:101F200050FE02E0204601F025FEA16B0143A163B3
:101F3000A06B012658B1216840F2FF50886384F8F5
:101F400034600120FEBDA06B40F08050E4E7211D0D
:101F5000D4E905700EC90095CDE90170206801F043
:101F60006FF984F834600020FEBD7047F0B5426E12
:101F7000120E93090B70C2F383034B7002F003023D
:101F80008A70426E120CCA70B0F86420120A0A718C
:101F900090F864204A71826E4FF6FF73120E03EAC6
:101FA0000212CA80826ECB88C2F3074243EA121340
:101FB000CB8002F00F020A72B0F86820C2F3072249
:101FC000D3094B72C2F380138B72C2F34013CB72EE
:101FD000C2F300130B7300264E73446C4FF400776A
:101FE00001236CB1012C43D0026840F2FF51916390
:101FF000816B41F08051816380F834300120F0BD65
:102000009207120D0A6190F868200C6944EA820276
:102010000A61C26E0C69120E44EA92140C61C2F39A
:10202000C2040C7502F007024A75C26EC2F3074281
:1020300054098C75C2F38204CC759207520F0A764C
:10204000B0F86C20C2F307240A7E42EAD4120A7662
:102050000A69521C42650D7EAD1CAA4042650D7A8C
:1020600003FA05F585656D0A6A43C0E917271CE088
:1020700090F868209206920A0A61C26E0C69120EEC
:1020800044EA02220A61C26E0C69C2F30742144399
:102090000C61B0F86C20C2F307240A69521C4FEAA5
:1020A00082224265C0E916720766C4F3801201F805
:1020B000192F4FEA84624FEA52624A7010F86C2F6F
:1020C0004C7844EAD2144C7002F07F028A70426865
:1020D0004FEA12624FEAD214CC70C2F341140C7171
:1020E000C2F382044C714FEA82724FEA12728A7113
:1020F00042688C79C2F3074244EA92148C71C2F3AD
:102100004014CC710E7202F001024A728288C2F34E
:1021100007224FEAD2148C72C2F38014CC72C2F33D
:1021200040140C73C2F300144C73C2F381048C731B
:1021300002F00302CA7300794FEA500008744B742E
:102140004FF00000F0BD426C0A60826C4A60C26CC5
:102150008A60026DCA60426D0A61826D4A61C26D19
:102160008A61006EC8610020704770B50446B0F8FF
:10217000500000250104206801F0E1F918B1A16BBD
:102180000143A16304E00021206801F04DF80546F9
:10219000C5F3432070BD000070B504460068416B74
:1021A0004FF00105CA0540F23A3149D52A0282634F
:1021B0002068C26B8A43C263206B0007206B22D564
:1021C000800702D4206B800609D5206801F0E8F969
:1021D00028B1A16B0143A1632046FFF7C6FE216829
:1021E00040F2FF50886384F83450206BC00702D15E
:1021F000206B800703D5204600F071FA70BD2046A1
:1022000000F071FA70BD0006FCD5206B800609D580
:10221000206801F0C5F928B1A16B0143A1632046F4
:10222000FFF7A3FE206BC007ECD1206B8007E9D439
:102230002068C16A21F00801C16284F83450DEE7E9
:10224000426B520410D54FF480418163266A002509
:1022500006EB8501206801F01CF86D1C082DF7D3F2
:10226000206A2030206270BD426B120410D54FF4FA
:1022700000418163A66A0025206800F0F7FF46F858
:1022800025006D1C082DF7D3A06A2030A06270BD18
:10229000426B40F23A231A42F9D0426B920703D5BF
:1022A000A26B42F00202A263426B120703D5A26B3B
:1022B00042F00802A263426B920603D5A26B42F081
:1022C0002002A263426BD20603D5A26B42F0100239
:1022D000A263426B920503D5A26B42F00802A2638F
:1022E00040F2FF7282632068C26B8A43C263206B34
:1022F000000623D5206C58B115490165206CFEF706
:1023000069FB0028C3D0206CBDE8704001F0E0BA42
:10231000E06B58B10F490165E06BFEF75BFB0028ED
:10232000B5D0E06BBDE8704001F0AEBA0020A0630C
:1023300084F834502046FFF7D8FD70BD206B0007AD
:10234000FBD584F834502046FFF70FFE70BD000027
:10235000D13800088938000870B5040004D094F81A
:102360003400002510B105E0012070BD257720461E
:1023700000F038F8032084F83400204600F008F814
:10238000A5632563012084F83400002070BD00009F
:10239000FEB50025044676200095CDE901502B4678
:1023A0002A462946206800F04BFF0D4E46F8A05FF4
:1023B000206800F057FF012535600220FEF756FC2B
:1023C000204601F086FB20B9204601F00FFB0028D3
:1023D00005D084F83450A16B0143A1630120FEBDF8
:1023E000008025422DE9F04F87B00546142168464C
:1023F000FDF71EFF4649286888427DD145480068A0
:10240000444940F400600860086800F400600590EA
:102410004048143800683F4940F00400143908600F
:10242000086800F004000590086840F008000860A3
:102430000868022400F0080005904FF4F850CDE938
:10244000000402AA002003264FF00C0882E8410194
:1024500069463148FEF72AFC02AA002082E84101C1
:102460000427CDE9007469462C48FEF71FFC2D4C6B
:102470002B484FF00068C4E9000800204FF4806941
:10248000A060C4E90309B8024FF4804BC4E9050B0E
:10249000C4E909764FF0200A0020C4E907A07E05B0
:1024A000B7102046C4E90B67FEF776FB08B1FEF7CC
:1024B0005FFAEC63A5631C4C194804F1280248300C
:1024C000C4E900084020A0600020C4E90309C4E971
:1024D00007A004206062032082E8C1004FF480510D
:1024E000C4E9051B2046FEF757FB08B1FEF740FA8A
:1024F00000222C64114600E006E03120A563FEF7BF
:1025000007FF3120FEF7F8FE07B0BDE8F08F0000AE
:10251000002C01404438024000080240000C0240F8
:1025200058640240BC3400201C3500202DE9F04FD7
:1025300087B09A4617460E460446DDF840B0FEF7CF
:102540009BFC00903EB194F83400012807D0A06BAA
:1025500040F000500FE0A06B40F000600BE04FF047
:102560000008C4F83880E06D07EB0A01814204D905
:10257000A06B40F00070A0637DE0032084F834007D
:102580002068C0F82C80606C012800D07F024FF4D6
:102590000071206800F0B6FE40F2FF59012530B10D
:1025A0002268C2F83890A16B0143A16361E04FF04B
:1025B000FF3001904FEA4A200290902003900220C1
:1025C000CDE90408069501A9206800F017FEBAF1CC
:1025D000010F06D9022020633946206800F020FF51
:1025E00004E025633946206800F033FF0028D7D186
:1025F00040F22A382068416B11EA080F22D1406B63
:10260000000409D50027206800F030FE46F82700B6
:102610007F1C082FF7D32036BBF1000F05D0FEF743
:102620002BFC0099411A5945E4D32168C1F8389030
:10263000A06B40F00040A06384F83450032007B042
:10264000BDE8F08F416BC90509D5BAF1010F06D974
:10265000616C032903D000F0A3FF0028A0D12068FB
:10266000416B090709D5C0F83890A06B40F008000D
:1026700028E084F834500120E1E7416B890705D553
:10268000C0F83890A06B40F002001BE0416B890657
:102690001AD5C0F83890A06B40F0200012E000BFBF
:1026A00000F0E4FD01C6BBF1000F05D0FEF7E4FB2E
:1026B0000099411A594507D32168C1F83890A06B99
:1026C00040F00040A063D4E72068416B8902E7D462
:1026D0002168C1F8389084F834500020AFE710B575
:1026E000FEF788F810BD10B5FEF796F810BD000093
:1026F0002DE9F04F87B09A4616460D460446FEF780
:10270000BBFB06903DB194F83400012807D0A06BC4
:1027100040F000500DE0A06B40F0006009E00020A8
:10272000A063E26D06EB0A01914204D9A06B40F070
:102730000070A06390E0032184F834102168814682
:10274000C862606C012800D076024FF400712068E6
:1027500000F0D8FD40F2FF58012730B12268C2F8DE
:102760003880A16B0143A16317E0BAF1010F06D9CC
:10277000202020633146206800F02CFF05E0102067
:1027800020633146206800F03EFF060008D0216833
:10279000C1F83880A06B3043A06384F834705BE0EC
:1027A0004FF0FF3000904FEA4A20019090200290B5
:1027B0004846CDE90407CDF80C90B9466946206833
:1027C00000F01CFD40F21A3B22E0406B40040AD5A9
:1027D0005FF0000705EB8701206800F05AFD7F1CC1
:1027E000082FF7D32035109830B1FEF745FB069936
:1027F000411A109881420BD32168C1F83880A06B30
:102800003043A06384F83490032007B0BDE8F08F14
:102810002068416B11EA0B0FD7D0416BC9050FD56A
:10282000BAF1010F0CD9616C032909D000F0B8FE90
:1028300030B12268C2F83880A16B0143A16309E07E
:102840002068416B090709D5C0F83880A06B40F0BB
:10285000080014E084F834900120D6E7416B890722
:1028600005D5C0F83880A06B40F0020007E0416B4E
:10287000C0F83880C90604D5A06B40F01000A063F2
:10288000E8E784F834900020BFE710B5401EB0F1AF
:10289000807F01D3012010BD4FF0E02460610F2143
:1028A000601700F0EFFB0020A061072020610020EE
:1028B00010BD30B590F83820012A20D0012280F8D0
:1028C0003820022380F8393003685C6824F07004F3
:1028D0005C6003685C680D682C435C6003689C68FE
:1028E00024F080049C6003689C6849680C439C60E9
:1028F00080F83920002180F83810084630BD0220C9
:1029000030BD10B5040003D094F8390010B107E0D1
:10291000012010BD002084F83800204600F00CF89B
:10292000022084F83900211D206801F039FB0120C4
:1029300084F83900002010BD08B5006806498842B7
:1029400008D10648016841F001010160006800F00B
:102950000100009008BD0000000001404438024022
:1029600070B5044690F83800012818D0012584F885
:102970003850022084F83900204601F07BFB2068A3
:10298000C16821F04001C1602068C16821F4804124
:10299000C16084F83950002084F8380070BD0220EE
:1029A00070BD70B5040004D094F83900002510B152
:1029B00006E0012070BD84F83850204600F022F86F
:1029C000242084F839002068C16821F40051C160D6
:1029D000204601F0CDFB2068016921F4904101619E
:1029E0002068416921F02A0141612068C16841F4F1
:1029F0000051C160E563202084F8390084F83A0072
:102A0000002070BD10B586B0044614216846FDF75D
:102A10000FFC14492068884221D11348016841F015
:102A200010010160006800F0100005900E48143895
:102A3000016841F0010101600068694600F0010091
:102A400005904FF4C0600090022001900120029098
:102A500003200390072004900448FEF727F906B0EE
:102A600010BD000000100140443802400000024048
:102A7000FEE701684A69D24352050CD46FF48062C4
:102A80004A6104210164002140F8301F2022427372
:102A9000017301207047002070470000F8B504461C
:102AA000C06A1E460D461746042807D0012805D0E7
:102AB00010F5803F02D0206B122804D120680168F5
:102AC00041F480710160134600224FF0011120464D
:102AD000009600F054F8A0B92069B0F5804F12D0EC
:102AE0000620216800EAD51040F0F0000861334666
:102AF0003A460E49204600F073F838B1206C04289D
:102B000011D00320F8BD05F0FE0000E0E8B2216816
:102B10000861064933463A46891F204600F060F8AE
:102B20000028EBD1F8BD0120F8BD0000080001002D
:102B300070B516460D4604461AE02046FFF799FF89
:102B400008B1012070BD681C12D025B1FEF794F9C0
:102B5000801BA8420CD954F8400F40F0200044F8E4
:102B6000100900202060202161732073032070BDB4
:102B700020684069C0434007DFD4002070BD2DE9C4
:102B8000F0471E4690460D460446C1F30747DDF860
:102B9000209012E0701C10D02EB1FEF76DF9A0EB62
:102BA0000900B04209D9002044F8300F2021617398
:102BB000A07320730320BDE8F0872068012F0AD09E
:102BC000806925EA00000004000C06D00021414580
:102BD000E0D00020EFE74069F3E70121F7E70000CC
:102BE0002DE9F0479A4691460D46044600264FF0DF
:102BF0002008C1F307472AE020684069C043400528
:102C000012D42068016841F40071016021686FF4FA
:102C10008060486104202064266384F83D8084F845
:102C20003C600120BDE8F087B9F1FF3F0FD0B9F15A
:102C3000000F05D0FEF720F9A0EB0A01494506D99F
:102C400044F8306F84F80D8026730320EAE720688B
:102C5000012F07D0D0F8180025EA00000004000C6E
:102C6000E0D0C9E74069F7E770B516460D4604465F
:102C70001AE02046FFF7FDFE08B1012070BD681C78
:102C800012D025B1FEF7F8F8801BA8420CD954F8F1
:102C9000400F40F0200044F810090020206020215F
:102CA00061732073032070BD20684069C043000633
:102CB000DFD4002070BD000030B5174C174D85B033
:102CC000B4F908003B280CDD012204F1200114486E
:102CD000FEF794FE012229461148FEF7B1FEA878BE
:102CE00020810D480DF1040C20300378C278417822
:102CF00080788CE80F00B4F90800009006486B78E3
:102D00002A7808A1243001F08BFBE0802089401C48
:102D1000208105B030BD000000000020C000002070
:102D20009C34002054696D653A25783A25783A2517
:102D3000690A446174653A25782E25782E25782015
:102D400025327800214808B5016841F4001101607E
:102D5000016801F400110091016841F480010160F3
:102D60000068002200F48000009011460B20FEF75E
:102D7000CFFA0B20FEF7C0FA002211460D20FEF715
:102D8000C7FA0D20FEF7B8FA002211461120FEF70F
:102D9000BFFA1120FEF7B0FA002211462F20FEF7ED
:102DA000B7FA2F20FEF7A8FA002211463B20FEF7C3
:102DB000AFFA3B20FEF7A0FA002211464520FEF7AD
:102DC000A7FABDE808404520FEF796BA3038024021
:102DD00010B504490448FDF7D9FD0249491E0870A1
:102DE00010BD00006700002028670008F0B587B01C
:102DF00014216846FDF71CFA39480024016841F0A7
:102E000010010160016801F010010591016841F0B5
:102E100004010160016801F004010591016841F0BD
:102E200080010160016801F080010591016841F0B5
:102E300001010160016801F001010591016841F0A3
:102E400002010160016801F002010591016841F091
:102E5000080101600068234E00F008000590002280
:102E6000C0213046FEF703F81F4F0022802138466C
:102E7000FDF7FDFF182001258DE8310069461B484C
:102E8000FDF714FFC0200090CDE90154694630469B
:102E90000394FDF70BFF4FF42A4000901448CDE94E
:102EA000010469461348FDF701FF80200090CDE939
:102EB0000154694638460394FDF7F8FE6802CDE9EF
:102EC000000469460C480294FDF7F0FE002211460A
:102ED0002820FEF71DFA2820FEF70EFA07B0F0BDF5
:102EE000303802400000024000080240001002405A
:102EF00000002110000C0240000402400C4810B5F4
:102F00000A4901600B49416000214FF48042816011
:102F1000C0E9031241618161C1610162FDF7B6FF41
:102F2000002801D0FDF724FD10BD00000054004032
:102F300074310020A08601000C4810B50A490160D8
:102F40000B49416000214FF480428160C0E90312C7
:102F500041618161C1610162FDF798FF002801D0E4
:102F6000FDF706FD10BD000000580040C8310020EC
:102F7000A086010010B588B014216846FDF758F905
:102F800000241248059410490694C0E90014846096
:102F9000C46004614461FFF7B4FC80B9072000906D
:102FA0002020019069460948FFF7DAFC38B90594FA
:102FB00005A906480694FFF77CFC002801D0FDF720
:102FC000D7FC08B010BD000000000140A032002076
:102FD00030B52DED028B89B0B0EE608AF0EE408AFC
:102FE00001221C491C48FEF709FD01221B491A4811
:102FF000FEF726FD18EE100AFDF725F904460D46EA
:1030000018EE900AFDF71FF904AA82E8330013486E
:10301000437802780F48C1788DE80E0043788278B3
:103020000E480FA1283801F0FBF981B20B4828386F
:1030300000F0EEFD012809D109B00022BDEC028BA1
:103040004021BDE830400D48FDF711BF09B0BDEC8F
:10305000028B30BD1C0000209C340020AC000020FE
:10306000257820257820257820257820257820208F
:10307000252E326620252E32660D0A000000024001
:10308000FEE770470907090E002806DA00F00F0076
:1030900000F1E02080F8141D704700F1E02080F876
:1030A0000014704770470000054810B5D0ED060ABF
:1030B00090ED050AFFF78CFFBDE8104000F05CBE04
:1030C0000000002010B50348FEF76AFCBDE8104080
:1030D000FFF7EABF9C340020010901EB810100F0F9
:1030E0000F0000EB4100C0B27047002102E00A3837
:1030F000C0B2491C0A28FAD2090740EA1160704799
:1031000070B504460068C168490614D44FF0FF3119
:10311000C160FDF7B1FE05464FF47A7607E000BFC7
:10312000FDF7AAFE401BB04201D9032070BD206804
:10313000C0684006F4D5002070BD000010B52D48D1
:103140009CB02B490024C0E900147F218160FF213D
:10315000C0E9031444618461FEF79EFC08B1FDF7E9
:1031600007FC8DF8004009A800F0CAFD012804D131
:10317000002280212048FDF77AFE462209A96846F0
:1031800000F0D9FF9DF8000001282FD19DF8010023
:103190008DF80C009DF802008DF80D009DF80300DD
:1031A0008DF80E000694012203A912480794FEF739
:1031B00009FE08B1FDF7DCFB9DF804008DF8220044
:1031C0009DF805008DF821009DF806008DF823007C
:1031D0009DF807008DF82000012208A90548FEF798
:1031E0008DFD08B1FDF7C4FBFDF718FB1CB010BD49
:1031F000002800409C340020000002400A6842621F
:103200004A688262D1E902231A43D1E904310B43AF
:10321000C16A1A4321F0F7011143C16200207047CF
:10322000006800F00300704708B5084414300090AF
:10323000006808BD0148FEF7AFBF00001C32002047
:1032400070B50DF1100C11439CE870002343194335
:1032500029434268314347F6FF639A430A43426079
:10326000002070BD0321016000207047D0F880006D
:1032700070470A688260D1E901231A43D1E903311A
:103280000B43C1681A436FF30B011143C160002067
:1032900070470968C0F880100020704710B586B0EC
:1032A00004463720CDE90010402002900020039012
:1032B0004FF48060049069462046FFF7DAFF41F240
:1032C00088323721204600F0B7F906B010BD000063
:1032D00010B504460A4886B001432920CDE9001004
:1032E00040200290002003904FF4806004906946D3
:1032F0002046FFF7BEFF204600F054FA06B010BD8E
:103300000000108010B586B004461020CDE90010F2
:1033100040200290002003904FF4806004906946A2
:103320002046FFF7A6FF41F288321021204600F028
:1033300083F906B010BD10B586B004460620CDE96D
:10334000001040200290002003904FF48060049011
:1033500069462046FFF78DFF41F28832062120465C
:1033600000F06AF906B010BD30B585B000240546FE
:10337000009401944FF480600294CDE903406946C3
:103380002846FFF776FF0B484FF4FA510068B0FB70
:10339000F1F041F288314843401E03D24FF0004023
:1033A00005B030BD696B0906F6D540F2FF50A86341
:1033B0002046F5E77800002070B585B004464FF44C
:1033C000D570009008204026CDE901060025C001F7
:1033D000CDE9035069462046FFF74BFF0F484FF4F5
:1033E000FA510068B0FBF1F041F288314843401EC9
:1033F00002D24FF000450DE0616B11F0450FF6D0A1
:10340000606B400702D5A663042503E0606B4006AD
:1034100000D5A66305B0284670BD000078000020E6
:1034200010B586B004461220CDE90010402002906D
:10343000002003904FF48060049069462046FFF717
:1034400018FF41F288321221204600F0F5F806B04C
:1034500010BD10B586B004461120CDE90010402003
:103460000290002003904FF480600490694620464B
:10347000FFF7FFFE41F288321121204600F0DCF810
:1034800006B010BD10B586B004460720CDE9002077
:1034900040200290002003904FF480600490694621
:1034A0002046FFF7E6FE41F288320721204600F071
:1034B000C3F806B010BD10B586B004460021022046
:1034C000CDE90010C020CDE902014FF480600490E6
:1034D00069462046FFF7CDFE204600F03BF906B0D6
:1034E00010BD10B586B004460920CDE90010C020FB
:1034F0000290002003904FF48060049069462046BB
:10350000FFF7B7FE204600F025F906B010BD10B554
:1035100086B0044600213320CDE900104020CDE9DB
:1035200002010001049069462046FFF7A2FE41F225
:1035300088323321204600F07FF806B010BD10B568
:1035400086B004460D20CDE90010402002900020F6
:1035500003904FF48060049069462046FFF789FE8F
:1035600041F288320D21204600F066F806B010BD09
:1035700030B585B00C46054600210320CDE900108A
:103580004020CDE902010001049069462846FFF77A
:1035900070FE22460321284600F024F905B030BD14
:1035A00010B586B0044600210C20CDE90010402063
:1035B000CDE902010001049069462046FFF759FE5B
:1035C000034A0C21204600F037F806B010BD000079
:1035D00000E1F50510B586B004461920CDE90010CC
:1035E00040200290002003904FF4806004906946D0
:1035F0002046FFF73EFE41F288321921204600F0B6
:103600001BF806B010BD10B586B004461820CDE9F1
:10361000001040200290002003904FF4806004903E
:1036200069462046FFF725FE41F2883218212046E0
:1036300000F002F806B010BD444B10B51B684FF403
:10364000FA54B3FBF4F353435B1E02D24FF0004035
:1036500010BD426B12F0450FF6D0426B520703D5F6
:1036600004218163084610BD426BD20702D00121BC
:10367000816303E00269D2B28A4201D0012010BD09
:1036800040F2FF5181630021FFF7CEFD304908422F
:1036900001D1002010BD002802DA4FF0007010BDEB
:1036A000410001D5402010BD810001D5802010BD12
:1036B000C10002D54FF4807010BD010102D54FF456
:1036C000007010BD410102D54FF4806010BDC101F2
:1036D00002D54FF4006010BD010202D54FF48050B6
:1036E00010BD410202D54FF4005010BD810202D539
:1036F0004FF4804010BDC10202D54FF4004010BD10
:10370000410302D54FF4003010BD810302D54FF4C0
:10371000802010BDC10302D54FF4002010BD01046C
:1037200002D54FF4801010BD410402D54FF40010B3
:1037300010BD810402D54FF4800010BD000702D5F2
:103740004FF4000010BD4FF4803010BD7800002011
:1037500008E0FFFD12494FF4FA520968B1FBF2F19B
:1037600041F288325143491E02D24FF00040704767
:10377000426B12F0450FF6D0416B490703D5042187
:10378000816308467047416BC90703D001218163FB
:103790000846704740F2FF518163002070470000E7
:1037A000780000200E494FF4FA520968B1FBF2F19B
:1037B00041F288325143491E02D24FF00040704717
:1037C000426B12F0450FF6D0416B490703D5042137
:1037D00081630846704740F2FF51816300207047C3
:1037E000780000201F4B10B51B684FF4FA54B3FB50
:1037F000F4F341F2883463435B1E02D24FF0004081
:1038000010BD446B14F0450FF6D0436B5B0703D536
:1038100004218163084610BD436BDB0702D0012100
:10382000816303E00369DBB28B4201D0012010BD4C
:1038300040F2FF5181630021FFF7F6FC10F4604F66
:1038400004D0410406D54FF4005010BD000C108088
:10385000002010BD000402D54FF4805010BD4FF47D
:10386000803010BD7800002010B5064C012020707B
:10387000FCF77EFF18B9207820F001002070207836
:1038800010BD00006500002070B5846B0025E06B62
:1038900000B1E563206C002816D12046FEF765FCD8
:1038A000A563012184F83410062801D005280BD126
:1038B0002068FFF775FEA16B0843A063A06B00288A
:1038C000204602D0FEF711FB70BDFEF74EFB70BD27
:1038D00070B5846B0025206C00B12564E06B002876
:1038E00016D12046FEF741FCA563012184F834106F
:1038F000062801D005280BD12068FFF751FEA16BE7
:103900000843A063A06B0028204602D0FEF7EDFA22
:1039100070BDFEF72AFB70BD2DE9F04F89B00E4651
:103920000446FDF7A9FA00258346009501952F4628
:1039300008212068FFF7E6FC002834D1B4F85000D5
:1039400001042068FFF7AAFC00282CD1401E4FF08C
:103950000808CDE9020830204FF00209CDE904093A
:103960000120CDE9067002A92068FFF747FC206816
:10397000FFF7CDFD002816D1EA4640F22A4720681D
:10398000416B394212D1416B890204D5FFF76EFCBD
:103990004AF825006D1CFDF76FFAA0EB0B00401CE8
:1039A000EDD14FF0004009B0BDE8F08F416B090741
:1039B00003D5C0F838800820F5E7416B890703D5A7
:1039C000C0F838900220EEE7416B890603D520212C
:1039D00081630846E7E740F2FF518163009800BA2F
:1039E0007060019800BA30600020DCE710B590B03C
:1039F00004460120ADF838002068FFF711FC0028CC
:103A000064D0606C032842D02068FFF754FD002882
:103A10005AD100212068FFF707FC60670421206865
:103A2000FFF702FCA06708212068FFF7FDFBE067B5
:103A30000C212068FFF7F8FBC4F88000606C0328B5
:103A400025D00EA92068FFF793FD00283CD1606CBB
:103A500003281CD0BDF83800206501042068FFF75A
:103A600040FD002830D100212068FFF7DDFB6066B3
:103A700004212068FFF7D8FBA06608212068FFF723
:103A8000D3FBE0660C212068FFF7CEFB2067042102
:103A90002068FFF7C9FB000DE06403A92046FEF78C
:103AA00065FAB4F85000002302042068FFF7EAFC2E
:103AB000002809D104F1100007C88DE8070094E838
:103AC0000F00FFF7BDFB002010B010BD4FF080606D
:103AD000FAE72DE9F8430025044600950068FFF752
:103AE00043FC00281AD12068FFF766FC4FF080786D
:103AF0004FF6FF76D8B14FF08057A5640098411C6F
:103B00000091B0421AD000212068FFF7C7FB20B90E
:103B100000212068FFF7DCFB10B13846BDE8F883D0
:103B200000212068FFF780FBC00FE7D01FE00127CE
:103B3000A7640098411C0091B04201D14046EDE7D6
:103B400000212068FFF7AAFB0028E7D14FF0804151
:103B50002068FFF7BDFB0028E0D100212068FFF7B7
:103B600063FBC10FE5D0400001D5676400E06564E8
:103B70000020D3E71CB504460020009001900021EE
:103B80002068FFF751FB800102D54FF400601CBD97
:103B900069462046FFF7C0FE0028F8D10198C0030F
:103BA0000CD5B4F8500001042068FFF777FB00281B
:103BB000EDD100212068FFF7BEFB1CBD4FF08060F7
:103BC0001CBD1CB504460020009001900021206817
:103BD000FFF72AFB800102D54FF400601CBD694647
:103BE0002046FFF799FE0028F8D1019840030CD534
:103BF000B4F8500001042068FFF750FB0028EDD115
:103C000002212068FFF797FB1CBD4FF080601CBDB0
:103C100070B50C46054600220F49104801F08CFC97
:103C200090B932220E490F4801F0B2FC60B90D483C
:103C3000C16801F063FB38B9094B22461B1F2946B6
:103C4000084801F0B5FE08B1012070BD054801F03B
:103C500041FB002070BD000067000020D400002060
:103C60004C0000200811002070B5064C05460120CC
:103C70002070FCF789FD18B92846FFF7F5FD207084
:103C8000207870BD6500002010B5124888B0144639
:103C90000078C00702D0032008B010BDC1B10129CF
:103CA00005D0022908D003290CD00420F4E7684687
:103CB000FCF758FD06980AE06846FCF753FD0798A4
:103CC000208005E06846FCF74DFD0798400A20601B
:103CD0000020E1E76500002070B51D461646084645
:103CE0000124A31E2A463146FCF774FD28B900BF03
:103CF000FCF73EFD0028FBD10024204670BD0000EB
:103D000038B504464620009000220C490C4801F0CA
:103D100013FC60B901220B490B4801F039FC30B9A2
:103D20006B4621460848009A01F040FD08B1012089
:103D300038BD054801F0CEFA002038BD67000020EC
:103D4000D40000205400002038210020FFF78CBD53
:103D500070B51D46164608460124A31E2A46314664
:103D6000FCF74AFD28B900BFFCF702FD0028FBD193
:103D70000024204670BD704700B599B00122274944
:103D80002748FDF73BFE012226492548FDF758FE4E
:103D9000244900204A78302A06D209788DF8041088
:103DA00030218DF8051012E08DF8050009781B4AC6
:103DB000232904D0491C8DF80410117805E08DF8F2
:103DC00004001178072926D0491C8DF824108DF89D
:103DD0000600029004900590069007904FF08040F6
:103DE000089080150A90012201A90D48FDF7C2FE36
:103DF00008B1FCF7BDFD9DF8240000909DF805304A
:103E00009DF8042008A10BA800F00AFB0349203903
:103E1000C88019B000BD0121D7E7000020000020B4
:103E20009C340020C0000020416C61726D3A202556
:103E3000782C2025782C2057643A20257800000023
:103E40001248002101224389052B01D102704181D2
:103E50008389FA2B01D142708181C389B3F5FA7F3E
:103E600001D18270C181038AB3F57A7F01D1C2701A
:103E700001824189491C41818189491C8181C18913
:103E8000491CC181018A491C018270470000002041
:103E900010B5FDF7D7F9BDE81040FFF7D1BF00001E
:103EA00030B597B030216846FCF7C2F914210CA850
:103EB000FCF7BEF90025234811951295139514952A
:103EC000016841F080510160006800F08050159059
:103ED0001D48016841F4804101600068022400F43B
:103EE00080401590052000904FF480300190012013
:103EF00002908005CDE9064004200890A820CDE975
:103F0000090407200B906846FDF7BAFBA8B90CA975
:103F10000F2081E831004FF4A0500F90E002109084
:103F200005210CA8FDF7C4FA38B9E00114901194EA
:103F300011A8FDF71FFA002801D0FCF719FD17B0F2
:103F400030BD000040380240007000401048016859
:103F500041F4700101600F48016841F00101016006
:103F60000C4A00210832116002680B4B1A400260B3
:103F7000031D0A4A1A60026822F480220260054882
:103F80000C30016002495806803908607047000013
:103F900088ED00E000380240FFFFF6FE10300024FC
:103FA000F0B50268234B244D244E254F254C4FF08D
:103FB000804C984209D0604507D0A84205D0B04255
:103FC00003D0B84201D0A04204D122F0700E4A685A
:103FD00042EA0E0298421BD0604519D0A84217D081
:103FE000B04215D0B84213D0A04211D0164DA8420D
:103FF0000ED0164DA8420BD0154DA84208D0154D35
:10400000A84205D0144DA84202D0144DA84203D1B5
:1040100022F44075CA682A4302608A68C2620A684C
:104020008262984201D0A04201D109690163012155
:104030004161F0BD00000140000400400008004064
:10404000000C0040000401400040014000440140D9
:104050000048014000180040001C004000200040C3
:1040600010B5846842EA032224F47F440A432243C1
:10407000826010BD30B403689A6822F070044A6808
:10408000224322F007040A6822439A604A6812F029
:104090000F0F1FD11211082A1CD2DFE802F01B1BE0
:1040A0001B1B0B1D23040B69D1E90221006830BCE6
:1040B000FFF7D6BF0268136A146A24F00104146281
:1040C00002689469096924F0F00444EA01119161DD
:1040D0000068036230BC70470A698968006830BCB8
:1040E00000F006B80A698968006830BC00F011B8B1
:1040F00010B5036A046A24F001040462846924F0A0
:10410000F00444EA021423F00A020A4384610262C2
:1041100010BD10B5036A23F0100303628369046ABB
:1041200023F4704343EA023224F0A00343EA01116E
:104130008261016210BDF0B50746022300200446EB
:1041400012E00D5D303D0A2D07D25B1EDBB24FEA57
:10415000830C05FA0CF53544EEB223B93E54401CED
:104160000223C0B20026641C9442EAD3F0BD0000D2
:104170002DE9F04104460068016921F44052E168EC
:10418000114301612168C86849F20C6290432369B8
:10419000A268E5691A4363692B431A430243CA6064
:1041A0002168486920F44072A06910434861E169C0
:1041B0006425B1F5004F9748974A21684FF03208BF
:1041C0003FD0914201D081427CD1FDF719FA00EB3A
:1041D000C00101EB001061688900B0FBF1F6FDF74A
:1041E0000FFA00EBC00101EB001061688900B0FB21
:1041F000F1F0B0FBF5F06FF01801484306EB8001D9
:1042000008EB0110B0FBF5F000F0F006FDF7F8F94F
:1042100000EBC00101EB001061688900B0FBF1F018
:10422000B0FBF5F006EB0016FDF7EAF900EBC00174
:1042300001EB001061688900B0FBF1F7FDF7E0F9D0
:10424000D2E0914201D081423DD1FDF7D9F900EB96
:10425000C00101EB001061684900B0FBF1F0B0FB58
:10426000F5F00601FDF7CCF900EBC00101EB001001
:1042700061684900B0FBF1F7FDF7C2F900EBC0013E
:1042800001EB001061684900B0FBF1F0B0FBF5F004
:104290006FF01801484307EB800108EBC100B0FB49
:1042A000F5F000F0F80006EB4006FDF7A9F900EB89
:1042B000C00101EB001061684900B0FBF1F7FDF7A8
:1042C0009FF93CE055E0FDF78BF900EBC00101EBF5
:1042D000001061684900B0FBF1F0B0FBF5F0060199
:1042E000FDF77EF900EBC00101EB001061684900A9
:1042F000B0FBF1F7FDF774F900EBC00101EB001022
:1043000061684900B0FBF1F0B0FBF5F06FF0180107
:10431000484307EB800108EBC100B0FBF5F000F06B
:10432000F80006EB4006FDF75BF900EBC00101EB7E
:10433000001061684900B0FBF1F7FDF751F900EB9F
:10434000C00101EB001061684900B0FBF1F0B0FB67
:10435000F5F06FF01801484307EB800108EBC1004E
:10436000B0FBF5F000F00700216830448860BDE83C
:10437000F081FDF735F900EBC00101EB0010616839
:104380008900B0FBF1F6FDF72BF900EBC00101EB62
:10439000001061688900B0FBF1F0B0FBF5F06FF040
:1043A0001801484306EB800108EB0110B0FBF5F063
:1043B00000F0F006FDF714F900EBC00101EB00106E
:1043C00061688900B0FBF1F0B0FBF5F006EB001678
:1043D000FDF706F900EBC00101EB001061688900F0
:1043E000B0FBF1F7FDF7FCF800EBC00101EB0010AA
:1043F00061688900B0FBF1F0B0FBF5F06FF01801D7
:10440000484307EB800108EB0110B0FBF5F000F02A
:104410000F00A9E70014014000100140FEE7000072
:104420000FB4084B10B504A902AA039800F0DEF8F7
:10443000044602A9002000F070FC204610BC5DF884
:1044400014FB00001B4D000802E008C8121F08C141
:10445000002AFAD170477047002001E001C1121F05
:10446000002AFBD1704700002DE9FF5F82B00021D8
:10447000DDE90430020DDDF840B0034318D044F606
:104480001050A2F2FF3242431514119801281FD098
:10449000A5EB0B00401C5FEA000A4FF000064E4FF0
:1044A000DFF83891B046504615D5CAF1000413E044
:1044B000119801244AA3012801D16FEA0B01029847
:1044C000119AC0E90031C0E9024206B0BDE8F09F90
:1044D000CBF10000DFE704460021404A491842EBD7
:1044E0000450CDE9001012E0E00707D032463B4609
:1044F00040464946FBF796FF8046894632463B4692
:1045000010461946FBF78EFF06460F466410002C36
:10451000EAD1DDE90401DDE90023BAF1000F06DA92
:10452000FBF780FF42464B46FBF77CFF05E0FBF7BD
:10453000EBFF42464B46FBF7E7FF04460E460022E0
:10454000284BFCF769F803D84FF0FF30014607E02D
:104550000022254B20463146FBF7BDFEFCF743F811
:10456000102409E0002C0ADB0A220023FBF728FEB6
:10457000039B30321A55641E50EA0102F2D1641CCA
:10458000039AC4F111031444119A012A03D00122A1
:1045900008430DD10AE0084304D000204FF0110B6E
:1045A000119072E7A3EB0B056D1E0DE05B4504DD7A
:1045B0004FF0000205F1010504E003DA4FF00002BC
:1045C000A5F10105002AECD002981199C0E9023149
:1045D000C0E9004579E70000000014400000F03F0A
:1045E000300000000000F0430000E03F2DE9FF4FE5
:1045F00095B09B468946064600250FE2252877D1CF
:1046000000242746F84A0121059400E0044316F8E7
:10461000013F203B01FA03F01042F7D130782A28FD
:1046200011D06FF02F033078A0F13002092A16D88C
:10463000059A44F0020402EB820203EB42021044AA
:10464000761C0590EFE759F8042B0592002A03DA4F
:10465000504244F40054059044F00204761C307833
:104660002E2816D116F8010F44F004042A280DD084
:104670006FF02F023078A0F13003092B09D807EB37
:10468000870302EB4303C718761CF3E759F8047B52
:10469000761C30786C280FD006DC4C2817D06828A0
:1046A0000DD06A2814D104E0742810D07A280FD1D4
:1046B0000DE044F400140AE044F4801401E044F4F2
:1046C00040147278824202D104F58014761C761C64
:1046D000307866280BD013DC582877D009DC002806
:1046E00075D04528F6D04628F4D047281AD19DE148
:1046F00018E0632835D0642879D0652812D195E177
:10470000702873D008DC6728F1D069286FD06E2834
:104710000DD06F2806D1B5E073282CD0752875D040
:10472000782874D05A46179990476D1C75E1C4F3E8
:104730000250022809D003280DD0D9F8001004280F
:104740000DD00D6009F1040967E1D9F80010EA17EE
:10475000C1E90052F6E7D9F800100D80F2E70D70BC
:10476000F0E719F8041B8DF8001000208DF8010007
:10477000EA46012003E059F804AB4FF0FF3061072F
:104780004FF0000102D40DE008F101018846B94262
:104790000FDA8045F8DB1AF808100029F4D108E098
:1047A00008F1010188468142FADB1AF80810002955
:1047B000F6D105985B46A0EB080721463846179AC4
:1047C00000F094FA284400EB080507E04DE029E1E9
:1047D0000DE01AF8010B5A4617999047B8F10108F5
:1047E000F7D25B4621463846179A13E142E00A2287
:1047F0000092C4F302524FF0000A022A08D059F87E
:1048000004CB032A4FEAEC710AD00DE029E02AE03C
:1048100009F1070121F00702F2E802C1914609E01F
:104820000FFA8CFC4FEAEC71042A03D14FFA8CFC8E
:104830004FEAEC71002907DA0A460021DCF1000C8E
:1048400061EB02012D2202E0220504D52B228DF816
:104850000420012203E0E20701D02022F7E790467E
:1048600059E00A2102E010220DE010214FF0000A69
:1048700000910BE010224FF0000A44F004040827D6
:10488000009203E008224FF0000A0092C4F30252A3
:10489000022A05D059F804CB0021032A08D009E0E8
:1048A00009F1070121F00702F2E802C1914605E093
:1048B0001FFA8CFC042A01D10CF0FF0C4FF0000809
:1048C000220728D5702806D0009B83F0100353EAF6
:1048D0000A0305D00EE040228DF80420012208E0F2
:1048E0005CEA010206D030228DF804208DF8050024
:1048F00002229046009B83F0080353EA0A030AD180
:104900005CEA010201D1620705D530228DF804204E
:104910004FF001087F1E582804D034A003900EA841
:1049200002900DE036A0F9E753466046009AFBF787
:1049300047FC84460398825C0298401E02900270F5
:104940005CEA0100F0D1029806A9081A00F1200AD9
:10495000600702D524F4803400E00127574502DDCA
:10496000A7EB0A0000E0002000EB0A010090059888
:104970004144401A0590E00306D45B462146179A4D
:10498000059800F0B3F90544002706E001A85A464F
:10499000C05D179990476D1C7F1C4745F6DBE0030F
:1049A0000CD55B462146179A059800F09FF90544FF
:1049B00004E030205A46179990476D1C0099481E14
:1049C00000900029F5DC08E0029802995A46007828
:1049D000491C0291179990476D1CBAF10001AAF188
:1049E000010AF1DC65E100000928010030313233B1
:1049F000343536373839616263646566000000001B
:104A00003031323334353637383941424344454604
:104A10000000000000F058F90544761C30780028AA
:104A20007FF4ECAD19B02846BDE8F08F620700D4E2
:104A3000062709F1070222F0070CFCE80223E146F1
:104A400003F000485FEA080C02D00FF2702C0DE072
:104A50005FEA045C02D50FF2682C07E05FEAC47CD1
:104A600002D00FF2602C01E0AFF2700C4FF0FF3873
:104A700023F00043CDF850C065280CD006DC452853
:104A800009D046281DD047283DD13DE0662818D0E2
:104A900067287ED138E00021112F01DB112000E0D2
:104AA000781CCDE9000106A90EA8FFF7DDFCDDE9C1
:104AB0000F010E9A03910021009207F1010A04915F
:104AC0004DE04FF000400097CDE9011006A90EA877
:104AD000FFF7CAFCDDE90F0203920E9B1199002239
:104AE000DDF80CA00093049211B9791C00EB010AC7
:104AF000B7EB0A0004D4C0F1FF3007F1010A0490BB
:104B0000AAEB0700019044E0012F00DA0127002101
:104B1000112F01DD112000E03846CDE9000106A982
:104B20000EA8FFF7A1FCDDE90F010E9A0391002109
:104B300004910092BA4621070CD40399514500DA3A
:104B40008A46BAF1010F05DD009AAAF10101515C14
:104B5000302908D0B84202DA10F1040F06DA012138
:104B6000CDE9011015E0AAF10101E9E7002805DC13
:104B7000049901440491AAEB000102E0411C514553
:104B800000DD8A460499401A401C01904FF0004015
:104B90000290200704D40198504501DBCDF8048031
:104BA00000208DF84F0002980DF14F07B0F1004F33
:104BB00025D02B200E9002984FF0020800280CDA26
:104BC000404202902D200E9007E00A210298FBF748
:104BD0004DFB3031029007F8011DB8F10001A8F13A
:104BE0000108F2DC02980028EFD1791E0E980870B7
:104BF000307800F0200040F0450007F8020D12A8C0
:104C0000C01B00F107081498007800B1012000EBE8
:104C10000A01019801EBE07105984144401A401ED9
:104C20000590E00306D45B462146179A059800F0EC
:104C30005DF805441498007818B15A4617999047C2
:104C40006D1CE00324D55B462146179A059800F0B9
:104C50004DF805441CE00498002807DBDDE903015A
:104C6000884203DD0098405C179901E017993020D5
:104C70005A469047049805F10105401C049001989C
:104C8000401E019004D12E205A46179990476D1C62
:104C9000BAF10001AAF1010ADDDC05E017F8010B09
:104CA0005A46179990476D1CB8F10001A8F1010808
:104CB000F4DC5B462146179A0598ABE62D00000010
:104CC0002B000000200000002DE9F04104460025E3
:104CD0001E461746880404D405E039462020B04714
:104CE0006D1C641EF9D52846BDE8F0812DE9F04120
:104CF000044600251E469046C80301D5302700E033
:104D00002027880404D505E041463846B0476D1C8D
:104D1000641EF9D52846BDE8F0810A68531C0B6073
:104D20001070704710B504460020E070401E2063EC
:104D3000204601F040FB08B1042010BD04F23220EF
:104D400001F0C0FAA0F52A41553901D0032010BD69
:104D500094F83400E92805D0EB2814D194F83600F3
:104D6000902810D104F16A0001F0A1FA0749B1EBD3
:104D7000002F06D004F1860001F099FA0449884218
:104D800001D1002010BD022010BD0000004641549A
:104D900046415433F0B50022144D134605EB02147E
:104DA00026685EB10768BE4209D166688768BE4260
:104DB00005D1A4684669B44204D000E00123521C26
:104DC000022AEBD3022A01D069B904E04BB90229C7
:104DD00007D01220F0BD05EB02108089B0F5807F6E
:104DE00001D00020F0BD1020F0BD00007C35002077
:104DF00030B50021054B0C4603EB011215688542C6
:104E000000D11460491C0229F6D330BD7C35002046
:104E10000268C06A938952895343B1FBF3F1001DC4
:104E200004C81AB1914203D3891AF8E700207047E9
:104E30000068084470478269891E921E8A4201D820
:104E400000207047C26A408901FB002070472DE9AD
:104E5000F04105680F00804606D001F004F80228F2
:104E600009D20120BDE8F0812E6916B1A869B042CF
:104E700007D8012605E0411CF4D0A9698142F1D888
:104E80003E463446A869641CA04202D80224022E81
:104E90000AD32146404600F0E6FF38B10128E1D0B0
:104EA000411CDFD0B442EDD10020DBE74FF0FF36EC
:104EB00032462146284601F097FA30B957B12246CA
:104EC0003946284601F090FA20B101280FD001247C
:104ED0002046C7E72C61D5E90501891E884201D823
:104EE000401E6861287940F001002871F0E73446DF
:104EF000EEE700002DE9F0410E4624300D6804462F
:104F00000B22202101F050FA0020014608272A5CDC
:104F1000401C202A12D92F2A0BD05C2A09D02E2A15
:104F200001D0B94214D30B2F22D02E2A20D10CE06D
:104F3000401C2B5C2F2BFBD05C2BF9D0284430601D
:104F4000B1B12078E5281FD020E008210B27DEE74B
:104F5000802A03D3114B1A4412F8802C10A300E0CE
:104F60005B1C93F800C0BCF1000F04D09445F7D14E
:104F70000620BDE8F081A2F16103192B01D8203A87
:104F8000D2B26254491CC2E705202070202A01D801
:104F9000042000E00020E0720020EAE75C670008DF
:104FA000222A2B2C3A3B3C3D3E3F5B5D7C7F000040
:104FB000401E022812D20A4901EB00118889B0F57F
:104FC000807F05D008B1401E80B2888110B103E017
:104FD0000020FAE700200860002070470220704798
:104FE0007C3500202DE9F04104460021056800F0E1
:104FF000DFF8002826D12846E16901F0DCF902003B
:105000001FD1206A017899B1C17A01F03F01A171E5
:10501000C17A09070FD404F124010B2610F8013BD3
:1050200011F8017BDB1B761E04D0002BF6D002E0CA
:10503000042206E02BB10021204600F005F8020012
:10504000D9D01046BDE8F0812DE9F0470546476903
:105050000468C0698946203710B1B7F5001F02D334
:105060000420BDE8F087A189B7FBF1F201FB1271C2
:1050700000295FD1401CE861A9694FF0000819B30D
:10508000A0896289B7FBF0F0521E104252D1284627
:1050900000F0E9FE064601281FD9701C36D0A06931
:1050A000B04241D8B9F1000F12D02846A969FFF7E4
:1050B000CEFE06000FD0012E0FD0701C26D0204649
:1050C00001F0EEFA10BB0AE02089B0EB571F31D88F
:1050D000C5F81C80C4E70720C3E70220C1E7A28906
:1050E000002104F1340001F05FF94FF0000831466F
:1050F0002046FFF7A0FE4FF0010920630DE000BF3E
:1051000084F80390204601F0CBFA08B10120A8E70B
:10511000206B08F10108401C206361894145EFD8EC
:10512000216BA1EB0800206331462046AE61FFF7FA
:1051300082FEE8616F61A089B7FBF0F100FB11709E
:1051400020443430286200208BE770B504460021EB
:10515000066800F02DF80DE03046E16901F02BF90A
:1051600050B9206A0078E52809D040B101212046D5
:10517000FFF76AFF0028EFD0042807D007E0304689
:10518000E16901F018F9050003D00FE0072005469A
:105190000CE020220021206A01F006F90B2204F124
:1051A0002401206A01F0F6F80120F070284670BD55
:1051B0002DE9F04104680F460646B1F5001F3CD2C8
:1051C000F8063AD17761B56825B92078032806D367
:1051D000A56A25B16089A18900FB01F812E0208948
:1051E000B0EB571F29D9A06A12E0304600F03BFE11
:1051F0000546401C1FD0022D1FD3A069A8421CD910
:10520000A7EB080747452946EFD22046FFF713FED4
:10521000C6E9065088B1A189B7FBF1F10844F061F5
:10522000A089B7FBF0F100FB1170204434303062EC
:105230000020BDE8F0810120FBE70220F9E7000033
:10524000084910B50B5C002253B901220A540A1810
:1052500001EB8000127A40680168104688470246D8
:10526000104610BD9C35002030B4054C231804EBCB
:1052700080001B7A406804691846A44630BC604729
:105280009C35002030B4054D2C1805EB8000247AA5
:10529000406885682046AC4630BC60479C3500209D
:1052A000044A111802EB8000097A406842680846F7
:1052B000104700009C35002030B4054D2C1805EB3C
:1052C0008000247A4068C5682046AC4630BC604700
:1052D0009C35002038B5044600F023FB00280CD193
:1052E0006946204601F005FA002806D12069FFF73B
:1052F0005FFE002801D10021216038BD2DE9FE4F5D
:105300000D460446694601F0F4F907006AD1677D4D
:10531000002FFBD1E06A4FF0020A4FF0010804F1C0
:10532000300B002871D0691C2FD0E068A84200D251
:105330000546A561002D55D02046691EFFF768FD82
:105340000146E0610098FFF776FD00287DD00099C6
:105350006D1E8A89B5FBF2F34D896D1E2B401D1819
:10536000A069B0FBF2F302FB13000028E3D0226A2D
:10537000AA42E0D0207D00063BD54878012359465B
:10538000FFF79AFF002870D12FE002C80191A168B1
:1053900083460225F1B10026AD1C029189462046C4
:1053A000761C00F060FD014601284ED9481C5CD0F7
:1053B00009F101008142F1D00198854206D8CBF86D
:1053C00000600BF10400029A04C0834600988069D3
:1053D0008842E0D8E06A05600198854203D8002140
:1053E000CBF80010A5E01127A3E0207D00F07F009E
:1053F0002075009801232A4640785946FFF742FF5E
:10540000002832D1256294E0FFE7E068A84203D289
:10541000217D890700D405464FF00009A069C4F832
:1054200018900DB300994E8989894E4370B1691E59
:10543000401EB1FBF6F1B0FBF6F2914206D3711EAD
:105440008843A0612D1AE1690DE05BE0A16849B9CC
:1054500000212046FFF7FBFC0146012852D0481CE2
:1054600061D0A160E161D9B92FE05CE0A069AD1B1A
:105470003044A061207D8007204605D5FFF7E7FC7A
:10548000010004D100250DE000F0EDFC0146481CB0
:1054900049D0012936D900988069884232D9E16122
:1054A000B542E3D8A0692844A06100988289B5FB81
:1054B000F2F302FB135242B1FFF7BDFC10B30099A7
:1054C0008989B5FBF1F101EB0009E168A069884227
:1054D00004D9E060217D41F04001217500998A895D
:1054E000B0FBF2F302FB130018B3226A4A4520D046
:1054F000207D00060FD5487801235946FFF7DCFED2
:1055000088B904E084F815A00220BDE8FE8F207D54
:1055100000F07F002075009801234A4640785946E4
:10552000FFF7B0FE18B184F815800120EDE7C4F84C
:1055300020903846E9E700002DE9F74181B0904618
:1055400002980090684600F004FD040003D50B208B
:1055500004B0BDE8F0810D4E002756F824501DB16F
:105560002846FFF745FC2F700198002800D00770EF
:1055700046F8240002D0B8F1010F01D00020E7E77F
:10558000002201A902A800F0EDFAE1E78000002066
:105590002DE9F74394B005000BD002F03F063246E8
:1055A000694615A800F0DEFA04004FF0000804D0A8
:1055B000F3E0092017B0BDE8F0830098049004A838
:1055C000159900F013FC04000ED19DF83F00000671
:1055D00001D5062408E0700801D0012100E0002177
:1055E00004A8FFF7D7FB044616F01C0F5DD04FF060
:1055F0000109C4B1042C10D100206B4902E0401C09
:10560000022804D201EB00121268002AF7D1022806
:1056100007D004A8FFF799FD044646F008065CB1E0
:10562000BBE01224B9E09DF8160010F0110F47D12D
:10563000700701D50824B0E0300747D500F087FC9B
:1056400007460C9839460E3000F0DAFF0C983946C0
:10565000163000F0D5FF0C982021C1720C990098EB
:1056600000F012FE074600220C99009800F0B4FFEB
:105670000C9800211C3000F0C3FF009981F80390C2
:1056800017B3D1F830900022394604A800F03EFF4D
:10569000040009D14946009800F08DFE04000098EE
:1056A000A7F1010707610DD077E0ECBB9DF816006C
:1056B000C10601D5042470E0B10703D5C00701D0AD
:1056C00007246AE0300701D546F040060098006BD9
:1056D00068620C98A862700801D0012100E00021E6
:1056E00004A800F055FC2861C0B30C99009800F0A4
:1056F000CBFDA8600C981C3000F0D9FDC5F82C80BB
:10570000E86000992960009905F130004FF480525B
:10571000C988A9802E7585F81580C5F820800021DC
:105720008146C5F8188000E037E000F03DFEB00685
:1057300035D5EE689EB3AE610098A9684789808927
:1057400047430FE0284600F08EFB0146012800D8B1
:105750000224481C03D0F61B24B105E021E00124FB
:10576000F61B01E0BE42EDD8E961B4B90098828928
:10577000B6FBF2F302FB13628AB1FFF75CFB80B168
:10578000009901238A89B6FBF2F202442A62487822
:105790004946FFF777FD10B10124C5F80080204687
:1057A00008E70224F9E700007C3500202DE9F04FDE
:1057B000884689B00021196099461546044604A917
:1057C00000F097FF002812D1607D00280FD1207DC6
:1057D000C0070BD0A169E0680127401A4FF0020A08
:1057E00004F1300B854200D9054695E0072009B049
:1057F000BDE8F08F049BA1699889B1FBF0F200FB32
:105800001212002A69D1B1FBF0F65889401E0640F9
:1058100011D129B1E06A28B12046FFF7F9FA05E075
:10582000A06803E02046E16900F01DFB02281DD3BB
:10583000411C4DD0E061E1690498FFF7FCFAA8B182
:105840003044009004988189B5FBF1F1059131B3A2
:10585000721841898A4201D9891B059140784146D5
:10586000059B009AFFF70EFD90BB03E084F815A09E
:105870000220BCE7207D00060CD5216A0098081A9A
:105880000599884206D204998A89594600FB02800C
:1058900000F080FD049886890598464332E0226A2C
:1058A00000998A4217D0217D090609D54078012345
:1058B0005946FFF701FD58B9207D00F07F002075A3
:1058C0000498012359464078009AFFF7DBFC10B199
:1058D000677501208BE7009820620498A169808990
:1058E000B1FBF0F200FB1212861AAE4200D92E462E
:1058F000B1FBF0F200FB1210011932464046303184
:1059000000F048FDA069B0443044A061D9F800001F
:105910008119AD1BC9F80010002D7FF46BAF00207A
:1059200065E7F8B50446694600F0E3FE00280ED1AD
:10593000217D4A060BD508060ED50098226A012360
:10594000407804F13001FFF7B7FC08B10120F8BD41
:10595000207D00F07F00207500F0F9FA0646616AAC
:10596000009800F028FD0028F1D1A56A2946E87AC0
:1059700040F02000E872A268206800F02DFE05F1DA
:105980001C00E16800F03CFE314605F1160000F015
:1059900037FE002105F1120000F03AFE00980121C7
:1059A000C17000F039FE217D01F0BF012175F8BD05
:1059B0002DE9F04F884689B00021196099461546B7
:1059C000044604A900F095FE002806D1607D002859
:1059D00003D1207D800703D4072009B0BDE8F08FF4
:1059E000A069012742194FF0020A04F1300B8242EC
:1059F00000D2C543ACE00498A1698289B1FBF2F3FF
:105A000002FB1313002B79D1B1FBF2F64089401E43
:105A1000064018D129B1E06A38B12046FFF7F8F9FD
:105A200007E0A06838B9002100E0E1692046FFF7EF
:105A30000EFA00287ED001282FD0411C58D0E061FA
:105A4000A16801B9A060207D00060BD50498226AE8
:105A5000012340785946FFF72FFCC0BB207D00F0A2
:105A60007F002075E1690498FFF7E5F9A8B130449B
:105A7000009004988189B5FBF1F1029141B372184D
:105A800041898A4201D9891B029140784146029B93
:105A9000009AFFF711FCD0B903E084F815A00220AA
:105AA0009BE7216A0098081A029988420AD2049951
:105AB0008A8900FB0281584600F06CFC207D00F0D2
:105AC0007F00207504988689029846432FE00FE0F6
:105AD000FFE7226A00998A420ED0E268A1699142EA
